{
  "contractName": "Tcr",
  "abi": [
    {
      "constant": true,
      "inputs": [],
      "name": "name",
      "outputs": [
        {
          "name": "",
          "type": "string"
        }
      ],
      "payable": false,
      "stateMutability": "view",
      "type": "function"
    },
    {
      "constant": true,
      "inputs": [],
      "name": "minDeposit",
      "outputs": [
        {
          "name": "",
          "type": "uint256"
        }
      ],
      "payable": false,
      "stateMutability": "view",
      "type": "function"
    },
    {
      "constant": true,
      "inputs": [],
      "name": "applyStageLen",
      "outputs": [
        {
          "name": "",
          "type": "uint256"
        }
      ],
      "payable": false,
      "stateMutability": "view",
      "type": "function"
    },
    {
      "constant": true,
      "inputs": [],
      "name": "pollNonce",
      "outputs": [
        {
          "name": "",
          "type": "uint256"
        }
      ],
      "payable": false,
      "stateMutability": "view",
      "type": "function"
    },
    {
      "constant": true,
      "inputs": [],
      "name": "commitStageLen",
      "outputs": [
        {
          "name": "",
          "type": "uint256"
        }
      ],
      "payable": false,
      "stateMutability": "view",
      "type": "function"
    },
    {
      "constant": true,
      "inputs": [
        {
          "name": "",
          "type": "uint256"
        }
      ],
      "name": "listingNames",
      "outputs": [
        {
          "name": "",
          "type": "string"
        }
      ],
      "payable": false,
      "stateMutability": "view",
      "type": "function"
    },
    {
      "constant": true,
      "inputs": [
        {
          "name": "",
          "type": "uint256"
        }
      ],
      "name": "courseNames",
      "outputs": [
        {
          "name": "",
          "type": "string"
        }
      ],
      "payable": false,
      "stateMutability": "view",
      "type": "function"
    },
    {
      "constant": true,
      "inputs": [
        {
          "name": "",
          "type": "uint256"
        }
      ],
      "name": "listingHashes",
      "outputs": [
        {
          "name": "",
          "type": "bytes32"
        }
      ],
      "payable": false,
      "stateMutability": "view",
      "type": "function"
    },
    {
      "constant": true,
      "inputs": [],
      "name": "token",
      "outputs": [
        {
          "name": "",
          "type": "address"
        }
      ],
      "payable": false,
      "stateMutability": "view",
      "type": "function"
    },
    {
      "inputs": [
        {
          "name": "_name",
          "type": "string"
        },
        {
          "name": "_token",
          "type": "address"
        },
        {
          "name": "_parameters",
          "type": "uint256[]"
        }
      ],
      "payable": false,
      "stateMutability": "nonpayable",
      "type": "constructor"
    },
    {
      "anonymous": false,
      "inputs": [
        {
          "indexed": true,
          "name": "listingHash",
          "type": "bytes32"
        },
        {
          "indexed": false,
          "name": "deposit",
          "type": "uint256"
        },
        {
          "indexed": false,
          "name": "data",
          "type": "string"
        },
        {
          "indexed": true,
          "name": "applicant",
          "type": "address"
        }
      ],
      "name": "_Application",
      "type": "event"
    },
    {
      "anonymous": false,
      "inputs": [
        {
          "indexed": true,
          "name": "listingHash",
          "type": "bytes32"
        },
        {
          "indexed": false,
          "name": "challengeId",
          "type": "uint256"
        },
        {
          "indexed": true,
          "name": "challenger",
          "type": "address"
        }
      ],
      "name": "_Challenge",
      "type": "event"
    },
    {
      "anonymous": false,
      "inputs": [
        {
          "indexed": true,
          "name": "listingHash",
          "type": "bytes32"
        },
        {
          "indexed": false,
          "name": "challengeId",
          "type": "uint256"
        },
        {
          "indexed": true,
          "name": "voter",
          "type": "address"
        }
      ],
      "name": "_Vote",
      "type": "event"
    },
    {
      "anonymous": false,
      "inputs": [
        {
          "indexed": true,
          "name": "listingHash",
          "type": "bytes32"
        },
        {
          "indexed": false,
          "name": "challengeId",
          "type": "uint256"
        },
        {
          "indexed": true,
          "name": "resolver",
          "type": "address"
        }
      ],
      "name": "_ResolveChallenge",
      "type": "event"
    },
    {
      "anonymous": false,
      "inputs": [
        {
          "indexed": true,
          "name": "challengeId",
          "type": "uint256"
        },
        {
          "indexed": false,
          "name": "reward",
          "type": "uint256"
        },
        {
          "indexed": true,
          "name": "voter",
          "type": "address"
        }
      ],
      "name": "_RewardClaimed",
      "type": "event"
    },
    {
      "constant": true,
      "inputs": [
        {
          "name": "_listingHash",
          "type": "bytes32"
        }
      ],
      "name": "isWhitelisted",
      "outputs": [
        {
          "name": "whitelisted",
          "type": "bool"
        }
      ],
      "payable": false,
      "stateMutability": "view",
      "type": "function"
    },
    {
      "constant": true,
      "inputs": [
        {
          "name": "_listingHash",
          "type": "bytes32"
        }
      ],
      "name": "appWasMade",
      "outputs": [
        {
          "name": "exists",
          "type": "bool"
        }
      ],
      "payable": false,
      "stateMutability": "view",
      "type": "function"
    },
    {
      "constant": true,
      "inputs": [],
      "name": "getAllListings",
      "outputs": [
        {
          "name": "",
          "type": "string[]"
        },
        {
          "name": "",
          "type": "bytes32[]"
        },
        {
          "name": "",
          "type": "bool[]"
        }
      ],
      "payable": false,
      "stateMutability": "view",
      "type": "function"
    },
    {
      "constant": true,
      "inputs": [],
      "name": "getAllCourses",
      "outputs": [
        {
          "name": "",
          "type": "string[]"
        },
        {
          "name": "",
          "type": "uint256[]"
        },
        {
          "name": "",
          "type": "uint256[]"
        }
      ],
      "payable": false,
      "stateMutability": "view",
      "type": "function"
    },
    {
      "constant": true,
      "inputs": [],
      "name": "getDetails",
      "outputs": [
        {
          "name": "",
          "type": "string"
        },
        {
          "name": "",
          "type": "address"
        },
        {
          "name": "",
          "type": "uint256"
        },
        {
          "name": "",
          "type": "uint256"
        },
        {
          "name": "",
          "type": "uint256"
        }
      ],
      "payable": false,
      "stateMutability": "view",
      "type": "function"
    },
    {
      "constant": true,
      "inputs": [
        {
          "name": "_listingHash",
          "type": "bytes32"
        }
      ],
      "name": "getListingDetails",
      "outputs": [
        {
          "name": "",
          "type": "bool"
        },
        {
          "name": "",
          "type": "address"
        },
        {
          "name": "",
          "type": "uint256"
        },
        {
          "name": "",
          "type": "uint256"
        },
        {
          "name": "",
          "type": "string"
        }
      ],
      "payable": false,
      "stateMutability": "view",
      "type": "function"
    },
    {
      "constant": true,
      "inputs": [
        {
          "name": "_courseHash",
          "type": "string"
        }
      ],
      "name": "getCourseDetails",
      "outputs": [
        {
          "name": "",
          "type": "string"
        },
        {
          "name": "",
          "type": "uint256"
        },
        {
          "name": "",
          "type": "uint256"
        }
      ],
      "payable": false,
      "stateMutability": "view",
      "type": "function"
    },
    {
      "constant": true,
      "inputs": [
        {
          "name": "_courseHash",
          "type": "string"
        }
      ],
      "name": "CourseExists",
      "outputs": [
        {
          "name": "",
          "type": "uint256"
        }
      ],
      "payable": false,
      "stateMutability": "view",
      "type": "function"
    },
    {
      "constant": false,
      "inputs": [
        {
          "name": "_amount",
          "type": "uint256"
        },
        {
          "name": "_roll",
          "type": "string"
        },
        {
          "name": "_course",
          "type": "string"
        },
        {
          "name": "_review",
          "type": "string"
        },
        {
          "name": "_rating",
          "type": "uint256"
        }
      ],
      "name": "propose",
      "outputs": [],
      "payable": false,
      "stateMutability": "nonpayable",
      "type": "function"
    },
    {
      "constant": false,
      "inputs": [
        {
          "name": "_listingHash",
          "type": "bytes32"
        },
        {
          "name": "_amount",
          "type": "uint256"
        }
      ],
      "name": "challenge",
      "outputs": [
        {
          "name": "challengeId",
          "type": "uint256"
        }
      ],
      "payable": false,
      "stateMutability": "nonpayable",
      "type": "function"
    },
    {
      "constant": false,
      "inputs": [
        {
          "name": "_listingHash",
          "type": "bytes32"
        },
        {
          "name": "_amount",
          "type": "uint256"
        },
        {
          "name": "_choice",
          "type": "bool"
        }
      ],
      "name": "vote",
      "outputs": [],
      "payable": false,
      "stateMutability": "nonpayable",
      "type": "function"
    },
    {
      "constant": true,
      "inputs": [
        {
          "name": "_listingHash",
          "type": "bytes32"
        }
      ],
      "name": "canBeWhitelisted",
      "outputs": [
        {
          "name": "",
          "type": "bool"
        }
      ],
      "payable": false,
      "stateMutability": "view",
      "type": "function"
    },
    {
      "constant": false,
      "inputs": [
        {
          "name": "_listingHash",
          "type": "bytes32"
        }
      ],
      "name": "updateStatus",
      "outputs": [],
      "payable": false,
      "stateMutability": "nonpayable",
      "type": "function"
    },
    {
      "constant": false,
      "inputs": [
        {
          "name": "challengeId",
          "type": "uint256"
        }
      ],
      "name": "claimRewards",
      "outputs": [],
      "payable": false,
      "stateMutability": "nonpayable",
      "type": "function"
    }
  ],
  "bytecode": "0x60806040523480156200001157600080fd5b50604051620054013803806200540183398101806040526200003791908101906200032f565b600073ffffffffffffffffffffffffffffffffffffffff168273ffffffffffffffffffffffffffffffffffffffff161415620000aa576040517f08c379a0000000000000000000000000000000000000000000000000000000008152600401620000a1906200041f565b60405180910390fd5b81600760006101000a81548173ffffffffffffffffffffffffffffffffffffffff021916908373ffffffffffffffffffffffffffffffffffffffff16021790555082600890805190602001906200010392919062000169565b50806000815181106200011257fe5b6020026020010151600981905550806001815181106200012e57fe5b6020026020010151600a81905550806002815181106200014a57fe5b6020026020010151600b819055506000600c819055505050506200057e565b828054600181600116156101000203166002900490600052602060002090601f016020900481019282601f10620001ac57805160ff1916838001178555620001dd565b82800160010185558215620001dd579182015b82811115620001dc578251825591602001919060010190620001bf565b5b509050620001ec9190620001f0565b5090565b6200021591905b8082111562000211576000816000905550600101620001f7565b5090565b90565b60008151905062000229816200054a565b92915050565b600082601f8301126200024157600080fd5b81516200025862000252826200046f565b62000441565b915081818352602084019350602081019050838560208402820111156200027e57600080fd5b60005b83811015620002b2578162000297888262000318565b84526020840193506020830192505060018101905062000281565b5050505092915050565b600082601f830112620002ce57600080fd5b8151620002e5620002df8262000498565b62000441565b915080825260208301602083018583830111156200030257600080fd5b6200030f83828462000514565b50505092915050565b600081519050620003298162000564565b92915050565b6000806000606084860312156200034557600080fd5b600084015167ffffffffffffffff8111156200036057600080fd5b6200036e86828701620002bc565b9350506020620003818682870162000218565b925050604084015167ffffffffffffffff8111156200039f57600080fd5b620003ad868287016200022f565b9150509250925092565b6000620003c6602683620004c5565b91507f546f6b656e20616464726573732073686f756c64206e6f74206265203020616460008301527f64726573732e00000000000000000000000000000000000000000000000000006020830152604082019050919050565b600060208201905081810360008301526200043a81620003b7565b9050919050565b6000604051905081810181811067ffffffffffffffff821117156200046557600080fd5b8060405250919050565b600067ffffffffffffffff8211156200048757600080fd5b602082029050602081019050919050565b600067ffffffffffffffff821115620004b057600080fd5b601f19601f8301169050602081019050919050565b600082825260208201905092915050565b6000620004e382620004ea565b9050919050565b600073ffffffffffffffffffffffffffffffffffffffff82169050919050565b6000819050919050565b60005b838110156200053457808201518184015260208101905062000517565b8381111562000544576000848401525b50505050565b6200055581620004d6565b81146200056157600080fd5b50565b6200056f816200050a565b81146200057b57600080fd5b50565b614e73806200058e6000396000f3fe608060405234801561001057600080fd5b506004361061014d5760003560e01c80637f073360116100c3578063d7ab802d1161007c578063d7ab802d146103be578063e2083c18146103ee578063e59fde151461041e578063e64152221461044e578063fbbf93a01461047e578063fc0c546a146104a05761014d565b80637f073360146102f85780638a59eb56146103165780638cf8151f1461033257806397508f3614610362578063a63dd19814610380578063ae73ccec1461039e5761014d565b80632ef116ff116101155780632ef116ff146101f857806341b3d18514610228578063533e6d881461024657806353f5c18514610262578063691a38ab146102945780637b356561146102c45761014d565b806301a5e3fe1461015257806304e48bd11461018257806306fdde03146101a25780630962ef79146101c05780632c729fd1146101dc575b600080fd5b61016c60048036036101679190810190613b55565b6104be565b60405161017991906147bf565b60405180910390f35b61018a6104eb565b60405161019993929190614773565b60405180910390f35b6101aa6107dc565b6040516101b7919061486a565b60405180910390f35b6101da60048036036101d59190810190613c4a565b61087a565b005b6101f660048036036101f19190810190613bba565b610bd1565b005b610212600480360361020d9190810190613c09565b610f49565b60405161021f9190614b24565b60405180910390f35b610230610f74565b60405161023d9190614b24565b60405180910390f35b610260600480360361025b9190810190613c73565b610f7a565b005b61027c60048036036102779190810190613c09565b611522565b60405161028b939291906148e6565b60405180910390f35b6102ae60048036036102a99190810190613b55565b611650565b6040516102bb91906147bf565b60405180910390f35b6102de60048036036102d99190810190613b55565b6116ff565b6040516102ef9594939291906147da565b60405180910390f35b610300611a55565b60405161030d9190614b24565b60405180910390f35b610330600480360361032b9190810190613b55565b611a5b565b005b61034c60048036036103479190810190613b55565b611aaa565b60405161035991906147bf565b60405180910390f35b61036a611acc565b6040516103779190614b24565b60405180910390f35b610388611ad2565b6040516103959190614b24565b60405180910390f35b6103a6611ad8565b6040516103b593929190614727565b60405180910390f35b6103d860048036036103d39190810190613c4a565b611f12565b6040516103e5919061486a565b60405180910390f35b61040860048036036104039190810190613b7e565b611fcb565b6040516104159190614b24565b60405180910390f35b61043860048036036104339190810190613c4a565b612418565b604051610445919061486a565b60405180910390f35b61046860048036036104639190810190613c4a565b6124d1565b6040516104759190614834565b60405180910390f35b6104866124f2565b60405161049795949392919061488c565b60405180910390f35b6104a86125d8565b6040516104b5919061484f565b60405180910390f35b60006003600083815260200190815260200160002060010160009054906101000a900460ff169050919050565b60608060608060028054905060405190808252806020026020018201604052801561052a57816020015b60608152602001906001900390816105155790505b50905060606002805490506040519080825280602002602001820160405280156105635781602001602082028038833980820191505090505b509050606060028054905060405190808252806020026020018201604052801561059c5781602001602082028038833980820191505090505b50905060008090505b6002805490508110156107ca57600281815481106105bf57fe5b906000526020600020018054600181600116156101000203166002900480601f01602080910402602001604051908101604052809291908181526020018280546001816001161561010002031660029004801561065d5780601f106106325761010080835404028352916020019161065d565b820191906000526020600020905b81548152906001019060200180831161064057829003601f168201915b505050505084828151811061066e57fe5b6020026020010181905250610681613821565b60016002838154811061069057fe5b906000526020600020016040516106a79190614687565b9081526020016040518091039020604051806080016040529081600082018054600181600116156101000203166002900480601f0160208091040260200160405190810160405280929190818152602001828054600181600116156101000203166002900480156107595780601f1061072e57610100808354040283529160200191610759565b820191906000526020600020905b81548152906001019060200180831161073c57829003601f168201915b5050505050815260200160018201548152602001600282015481526020016003820154815250509050806020015184838151811061079357fe5b60200260200101818152505080604001518383815181106107b057fe5b6020026020010181815250505080806001019150506105a5565b50828282955095509550505050909192565b60088054600181600116156101000203166002900480601f0160208091040260200160405190810160405280929190818152602001828054600181600116156101000203166002900480156108725780601f1061084757610100808354040283529160200191610872565b820191906000526020600020905b81548152906001019060200180831161085557829003601f168201915b505050505081565b6001151560008083815260200190815260200160002060000160149054906101000a900460ff161515146108e3576040517f08c379a00000000000000000000000000000000000000000000000000000000081526004016108da90614aa4565b60405180910390fd5b600060066000838152602001908152602001600020905060008160040160003373ffffffffffffffffffffffffffffffffffffffff1673ffffffffffffffffffffffffffffffffffffffff1681526020019081526020016000209050600015158160020160009054906101000a900460ff16151514610997576040517f08c379a000000000000000000000000000000000000000000000000000000000815260040161098e90614944565b60405180910390fd5b8160030160009054906101000a900460ff1680156109c357508060000160009054906101000a900460ff165b806109f857508160030160009054906101000a900460ff161580156109f757508060000160009054906101000a900460ff16155b5b15610baf576000610a5260008086815260200190815260200160002060030154610a448460010154600080898152602001908152602001600020600201546125fe90919063ffffffff16565b61263890919063ffffffff16565b90506000610a6d82846001015461265e90919063ffffffff16565b9050600760009054906101000a900473ffffffffffffffffffffffffffffffffffffffff1673ffffffffffffffffffffffffffffffffffffffff1663a9059cbb33836040518363ffffffff1660e01b8152600401610acc9291906146d5565b602060405180830381600087803b158015610ae657600080fd5b505af1158015610afa573d6000803e3d6000fd5b505050506040513d601f19601f82011682018060405250610b1e9190810190613b2c565b610b5d576040517f08c379a0000000000000000000000000000000000000000000000000000000008152600401610b54906149c4565b60405180910390fd5b3373ffffffffffffffffffffffffffffffffffffffff16857f6f4c982acc31b0af2cf1dc1556f21c0325d893782d65e83c68a5534a33f5995783604051610ba49190614b24565b60405180910390a350505b60018160020160006101000a81548160ff021916908315150217905550505050565b6000600360008581526020019081526020016000209050610bf184611aaa565b80610c0a57508060010160009054906101000a900460ff165b610c49576040517f08c379a0000000000000000000000000000000000000000000000000000000008152600401610c4090614a24565b60405180910390fd5b60008160030154118015610c8157506000808260030154815260200190815260200160002060000160149054906101000a900460ff16155b610cc0576040517f08c379a0000000000000000000000000000000000000000000000000000000008152600401610cb790614984565b60405180910390fd5b60006006600083600301548152602001908152602001600020905042816002015411610d21576040517f08c379a0000000000000000000000000000000000000000000000000000000008152600401610d1890614a44565b60405180910390fd5b600760009054906101000a900473ffffffffffffffffffffffffffffffffffffffff1673ffffffffffffffffffffffffffffffffffffffff166323b872dd3330876040518463ffffffff1660e01b8152600401610d809392919061469e565b602060405180830381600087803b158015610d9a57600080fd5b505af1158015610dae573d6000803e3d6000fd5b505050506040513d601f19601f82011682018060405250610dd29190810190613b2c565b610e11576040517f08c379a0000000000000000000000000000000000000000000000000000000008152600401610e0890614ae4565b60405180910390fd5b8215610e2e57838160000160008282540192505081905550610e41565b8381600101600082825401925050819055505b60405180606001604052808415158152602001858152602001600015158152508160040160003373ffffffffffffffffffffffffffffffffffffffff1673ffffffffffffffffffffffffffffffffffffffff16815260200190815260200160002060008201518160000160006101000a81548160ff0219169083151502179055506020820151816001015560408201518160020160006101000a81548160ff0219169083151502179055509050503373ffffffffffffffffffffffffffffffffffffffff16857f7a1c5ce18abad3692f6bdf85262d38c3ad4ee5cabf88020e5a0e4d6b841d83768460030154604051610f3a9190614b24565b60405180910390a35050505050565b6000600182604051610f5b919061460b565b9081526020016040518091039020600201549050919050565b60095481565b606087878787604051602001610f9394939291906145e3565b604051602081830303815290604052905060008082511415610fb6576000801b90505b60208201519050610fc6816104be565b15611006576040517f08c379a0000000000000000000000000000000000000000000000000000000008152600401610ffd90614b04565b60405180910390fd5b61100f81611aaa565b1561104f576040517f08c379a000000000000000000000000000000000000000000000000000000000815260040161104690614924565b60405180910390fd5b6009548a1015611094576040517f08c379a000000000000000000000000000000000000000000000000000000000815260040161108b90614a04565b60405180910390fd5b61116f81338c8c8c8080601f016020809104026020016040519081016040528093929190818152602001838380828437600081840152601f19601f820116905080830192505050505050508b8b8080601f016020809104026020016040519081016040528093929190818152602001838380828437600081840152601f19601f820116905080830192505050505050508a8a8080601f016020809104026020016040519081016040528093929190818152602001838380828437600081840152601f19601f820116905080830192505050505050508961267d565b6111bd87878080601f016020809104026020016040519081016040528093929190818152602001838380828437600081840152601f19601f8201169050808301925050505050505084612a12565b600760009054906101000a900473ffffffffffffffffffffffffffffffffffffffff1673ffffffffffffffffffffffffffffffffffffffff166323b872dd33308d6040518463ffffffff1660e01b815260040161121c9392919061469e565b602060405180830381600087803b15801561123657600080fd5b505af115801561124a573d6000803e3d6000fd5b505050506040513d601f19601f8201168201806040525061126e9190810190613b2c565b6112ad576040517f08c379a00000000000000000000000000000000000000000000000000000000081526004016112a490614ae4565b60405180910390fd5b3373ffffffffffffffffffffffffffffffffffffffff16817fe1cdd401be51ef2c8159945a96274b69ba482f2a5e2131700beeda434fd6d58f8c61150060036000878152602001908152602001600020600401604051806080016040529081600082018054600181600116156101000203166002900480601f0160208091040260200160405190810160405280929190818152602001828054600181600116156101000203166002900480156113a45780601f10611379576101008083540402835291602001916113a4565b820191906000526020600020905b81548152906001019060200180831161138757829003601f168201915b50505050508152602001600182018054600181600116156101000203166002900480601f0160208091040260200160405190810160405280929190818152602001828054600181600116156101000203166002900480156114465780601f1061141b57610100808354040283529160200191611446565b820191906000526020600020905b81548152906001019060200180831161142957829003601f168201915b50505050508152602001600282018054600181600116156101000203166002900480601f0160208091040260200160405190810160405280929190818152602001828054600181600116156101000203166002900480156114e85780601f106114bd576101008083540402835291602001916114e8565b820191906000526020600020905b8154815290600101906020018083116114cb57829003601f168201915b50505050508152602001600382015481525050612b31565b60405161150e929190614b3f565b60405180910390a350505050505050505050565b606060008061152f613821565b60018560405161153f919061460b565b9081526020016040518091039020604051806080016040529081600082018054600181600116156101000203166002900480601f0160208091040260200160405190810160405280929190818152602001828054600181600116156101000203166002900480156115f15780601f106115c6576101008083540402835291602001916115f1565b820191906000526020600020905b8154815290600101906020018083116115d457829003601f168201915b5050505050815260200160018201548152602001600282015481526020016003820154815250509050806000015161163a8260400151836020015161263890919063ffffffff16565b8260400151829250935093509350509193909250565b6000806003600084815260200190815260200160002060030154905061167583611aaa565b80156116965750426003600085815260200190815260200160002060000154105b80156116a857506116a6836104be565b155b80156116e5575060008114806116e457506001151560008083815260200190815260200160002060000160149054906101000a900460ff161515145b5b156116f45760019150506116fa565b60009150505b919050565b600080600080606061170f613849565b600360008881526020019081526020016000206040518060e0016040529081600082015481526020016001820160009054906101000a900460ff161515151581526020016001820160019054906101000a900473ffffffffffffffffffffffffffffffffffffffff1673ffffffffffffffffffffffffffffffffffffffff1673ffffffffffffffffffffffffffffffffffffffff168152602001600282015481526020016003820154815260200160048201604051806080016040529081600082018054600181600116156101000203166002900480601f0160208091040260200160405190810160405280929190818152602001828054600181600116156101000203166002900480156118655780601f1061183a57610100808354040283529160200191611865565b820191906000526020600020905b81548152906001019060200180831161184857829003601f168201915b50505050508152602001600182018054600181600116156101000203166002900480601f0160208091040260200160405190810160405280929190818152602001828054600181600116156101000203166002900480156119075780601f106118dc57610100808354040283529160200191611907565b820191906000526020600020905b8154815290600101906020018083116118ea57829003601f168201915b50505050508152602001600282018054600181600116156101000203166002900480601f0160208091040260200160405190810160405280929190818152602001828054600181600116156101000203166002900480156119a95780601f1061197e576101008083540402835291602001916119a9565b820191906000526020600020905b81548152906001019060200180831161198c57829003601f168201915b50505050508152602001600382015481525050815260200160088201548152505090506119d587611aaa565b806119e1575080602001515b611a20576040517f08c379a0000000000000000000000000000000000000000000000000000000008152600401611a1790614a24565b60405180910390fd5b8060200151816040015182606001518360800151611a418560a00151612b31565b955095509550955095505091939590929450565b600a5481565b611a6481611650565b15611a9d5760016003600083815260200190815260200160002060010160006101000a81548160ff021916908315150217905550611aa7565b611aa681612bb8565b5b50565b6000806003600084815260200190815260200160002060000154119050919050565b600c5481565b600b5481565b606080606080600480549050604051908082528060200260200182016040528015611b1757816020015b6060815260200190600190039081611b025790505b5090506060600580549050604051908082528060200260200182016040528015611b505781602001602082028038833980820191505090505b5090506060600480549050604051908082528060200260200182016040528015611b895781602001602082028038833980820191505090505b509050611b94613849565b60008090505b600480549050811015611eff576003600060058381548110611bb857fe5b906000526020600020015481526020019081526020016000206040518060e0016040529081600082015481526020016001820160009054906101000a900460ff161515151581526020016001820160019054906101000a900473ffffffffffffffffffffffffffffffffffffffff1673ffffffffffffffffffffffffffffffffffffffff1673ffffffffffffffffffffffffffffffffffffffff168152602001600282015481526020016003820154815260200160048201604051806080016040529081600082018054600181600116156101000203166002900480601f016020809104026020016040519081016040528092919081815260200182805460018160011615610100020316600290048015611d145780601f10611ce957610100808354040283529160200191611d14565b820191906000526020600020905b815481529060010190602001808311611cf757829003601f168201915b50505050508152602001600182018054600181600116156101000203166002900480601f016020809104026020016040519081016040528092919081815260200182805460018160011615610100020316600290048015611db65780601f10611d8b57610100808354040283529160200191611db6565b820191906000526020600020905b815481529060010190602001808311611d9957829003601f168201915b50505050508152602001600282018054600181600116156101000203166002900480601f016020809104026020016040519081016040528092919081815260200182805460018160011615610100020316600290048015611e585780601f10611e2d57610100808354040283529160200191611e58565b820191906000526020600020905b815481529060010190602001808311611e3b57829003601f168201915b5050505050815260200160038201548152505081526020016008820154815250509150611e888260a00151612b31565b858281518110611e9457fe5b602002602001018190525060058181548110611eac57fe5b9060005260206000200154848281518110611ec357fe5b6020026020010181815250508160200151838281518110611ee057fe5b6020026020010190151590811515815250508080600101915050611b9a565b5083838396509650965050505050909192565b60048181548110611f1f57fe5b906000526020600020016000915090508054600181600116156101000203166002900480601f016020809104026020016040519081016040528092919081815260200182805460018160011615610100020316600290048015611fc35780601f10611f9857610100808354040283529160200191611fc3565b820191906000526020600020905b815481529060010190602001808311611fa657829003601f168201915b505050505081565b600080600360008581526020019081526020016000209050611fec84611aaa565b8061200557508060010160009054906101000a900460ff165b612044576040517f08c379a000000000000000000000000000000000000000000000000000000000815260040161203b90614a24565b60405180910390fd5b60008160030154148061207a57506000808260030154815260200190815260200160002060000160149054906101000a900460ff165b6120b9576040517f08c379a00000000000000000000000000000000000000000000000000000000081526004016120b090614ac4565b60405180910390fd5b428160000154116120ff576040517f08c379a00000000000000000000000000000000000000000000000000000000081526004016120f6906149e4565b60405180910390fd5b8060020154831015612146576040517f08c379a000000000000000000000000000000000000000000000000000000000815260040161213d90614a84565b60405180910390fd5b6001600c5401600c819055506040518060a001604052803373ffffffffffffffffffffffffffffffffffffffff168152602001600015158152602001848152602001600081526020016000815250600080600c54815260200190815260200160002060008201518160000160006101000a81548173ffffffffffffffffffffffffffffffffffffffff021916908373ffffffffffffffffffffffffffffffffffffffff16021790555060208201518160000160146101000a81548160ff0219169083151502179055506040820151816001015560608201518160020155608082015181600301559050506040518060800160405280600081526020016000815260200161225e600b544261265e90919063ffffffff16565b81526020016000151581525060066000600c54815260200190815260200160002060008201518160000155602082015181600101556040820151816002015560608201518160030160006101000a81548160ff021916908315150217905550905050600c548160030181905550600760009054906101000a900473ffffffffffffffffffffffffffffffffffffffff1673ffffffffffffffffffffffffffffffffffffffff166323b872dd3330866040518463ffffffff1660e01b815260040161232a9392919061469e565b602060405180830381600087803b15801561234457600080fd5b505af1158015612358573d6000803e3d6000fd5b505050506040513d601f19601f8201168201806040525061237c9190810190613b2c565b6123bb576040517f08c379a00000000000000000000000000000000000000000000000000000000081526004016123b290614ae4565b60405180910390fd5b3373ffffffffffffffffffffffffffffffffffffffff16847fc911f55bb4170a166467bde15c8799c1d2bb96a79f6bd9bc5cd3a4f05f768f6f600c546040516124049190614b24565b60405180910390a3600c5491505092915050565b6002818154811061242557fe5b906000526020600020016000915090508054600181600116156101000203166002900480601f0160208091040260200160405190810160405280929190818152602001828054600181600116156101000203166002900480156124c95780601f1061249e576101008083540402835291602001916124c9565b820191906000526020600020905b8154815290600101906020018083116124ac57829003601f168201915b505050505081565b600581815481106124de57fe5b906000526020600020016000915090505481565b6060600080600080606060088054600181600116156101000203166002900480601f0160208091040260200160405190810160405280929190818152602001828054600181600116156101000203166002900480156125925780601f1061256757610100808354040283529160200191612592565b820191906000526020600020905b81548152906001019060200180831161257557829003601f168201915b5050505050905080600760009054906101000a900473ffffffffffffffffffffffffffffffffffffffff16600954600a54600b5495509550955095509550509091929394565b600760009054906101000a900473ffffffffffffffffffffffffffffffffffffffff1681565b6000808314156126115760009050612632565b600082840290508284828161262257fe5b041461262d57600080fd5b809150505b92915050565b600080821161264657600080fd5b600082848161265157fe5b0490508091505092915050565b60008082840190508381101561267357600080fd5b8091505092915050565b6000600360008981526020019081526020016000209050868160010160016101000a81548173ffffffffffffffffffffffffffffffffffffffff021916908373ffffffffffffffffffffffffffffffffffffffff1602179055506040518060800160405280868152602001858152602001848152602001838152508160040160008201518160000190805190602001906127189291906138a5565b5060208201518160010190805190602001906127359291906138a5565b5060408201518160020190805190602001906127529291906138a5565b50606082015181600301559050506005889080600181540180825580915050906001820390600052602060002001600090919290919091505550600461299582600401604051806080016040529081600082018054600181600116156101000203166002900480601f0160208091040260200160405190810160405280929190818152602001828054600181600116156101000203166002900480156128395780601f1061280e57610100808354040283529160200191612839565b820191906000526020600020905b81548152906001019060200180831161281c57829003601f168201915b50505050508152602001600182018054600181600116156101000203166002900480601f0160208091040260200160405190810160405280929190818152602001828054600181600116156101000203166002900480156128db5780601f106128b0576101008083540402835291602001916128db565b820191906000526020600020905b8154815290600101906020018083116128be57829003601f168201915b50505050508152602001600282018054600181600116156101000203166002900480601f01602080910402602001604051908101604052809291908181526020018280546001816001161561010002031660029004801561297d5780601f106129525761010080835404028352916020019161297d565b820191906000526020600020905b81548152906001019060200180831161296057829003601f168201915b50505050508152602001600382015481525050612b31565b90806001815401808255809150509060018203906000526020600020016000909192909190915090805190602001906129cf929190613925565b505060016004805490500381600801819055506129f7600a544261265e90919063ffffffff16565b81600001819055508581600201819055505050505050505050565b6000612a1d83610f49565b1115612a6a576000600183604051612a35919061460b565b908152602001604051809103902090506001816002015401816002018190555081816001015401816001018190555050612b2d565b604051806080016040528083815260200182815260200160018152602001600280549050815250600183604051612aa1919061460b565b90815260200160405180910390206000820151816000019080519060200190612acb9291906138a5565b506020820151816001015560408201518160020155606082015181600301559050506002829080600181540180825580915050906001820390600052602060002001600090919290919091509080519060200190612b2a929190613925565b50505b5050565b6060806040518060400160405280600181526020017f20000000000000000000000000000000000000000000000000000000000000008152509050826000015181846020015183866040015185612b8b89606001516135d4565b604051602001612ba19796959493929190614622565b604051602081830303815290604052915050919050565b612bc0613849565b600360008381526020019081526020016000206040518060e0016040529081600082015481526020016001820160009054906101000a900460ff161515151581526020016001820160019054906101000a900473ffffffffffffffffffffffffffffffffffffffff1673ffffffffffffffffffffffffffffffffffffffff1673ffffffffffffffffffffffffffffffffffffffff168152602001600282015481526020016003820154815260200160048201604051806080016040529081600082018054600181600116156101000203166002900480601f016020809104026020016040519081016040528092919081815260200182805460018160011615610100020316600290048015612d165780601f10612ceb57610100808354040283529160200191612d16565b820191906000526020600020905b815481529060010190602001808311612cf957829003601f168201915b50505050508152602001600182018054600181600116156101000203166002900480601f016020809104026020016040519081016040528092919081815260200182805460018160011615610100020316600290048015612db85780601f10612d8d57610100808354040283529160200191612db8565b820191906000526020600020905b815481529060010190602001808311612d9b57829003601f168201915b50505050508152602001600282018054600181600116156101000203166002900480601f016020809104026020016040519081016040528092919081815260200182805460018160011615610100020316600290048015612e5a5780601f10612e2f57610100808354040283529160200191612e5a565b820191906000526020600020905b815481529060010190602001808311612e3d57829003601f168201915b505050505081526020016003820154815250508152602001600882015481525050905060008160800151118015612eb557506000808260800151815260200190815260200160002060000160149054906101000a900460ff16155b612ef4576040517f08c379a0000000000000000000000000000000000000000000000000000000008152600401612eeb90614984565b60405180910390fd5b6000816080015190506000612f0882613701565b9050600160008084815260200190815260200160002060000160146101000a81548160ff021916908315150217905550600080600084815260200190815260200160002060000160009054906101000a900473ffffffffffffffffffffffffffffffffffffffff169050811561302357600660008481526020019081526020016000206000015460008085815260200190815260200160002060030181905550600660008481526020019081526020016000206001015460008085815260200190815260200160002060010154016000808581526020019081526020016000206002018190555060016003600087815260200190815260200160002060010160006101000a81548160ff02191690831515021790555061357e565b600760009054906101000a900473ffffffffffffffffffffffffffffffffffffffff1673ffffffffffffffffffffffffffffffffffffffff1663a9059cbb82600080878152602001908152602001600020600101546040518363ffffffff1660e01b81526004016130959291906146fe565b602060405180830381600087803b1580156130af57600080fd5b505af11580156130c3573d6000803e3d6000fd5b505050506040513d601f19601f820116820180604052506130e79190810190613b2c565b613126576040517f08c379a000000000000000000000000000000000000000000000000000000000815260040161311d90614a64565b60405180910390fd5b6006600084815260200190815260200160002060010154600080858152602001908152602001600020600301819055506006600084815260200190815260200160002060000154846060015101600080858152602001908152602001600020600201819055506060600360008781526020019081526020016000206004016001018054600181600116156101000203166002900480601f01602080910402602001604051908101604052809291908181526020018280546001816001161561010002031660029004801561323b5780601f106132105761010080835404028352916020019161323b565b820191906000526020600020905b81548152906001019060200180831161321e57829003601f168201915b50505050509050600060036000888152602001908152602001600020600401600301549050613268613821565b600183604051613278919061460b565b9081526020016040518091039020604051806080016040529081600082018054600181600116156101000203166002900480601f01602080910402602001604051908101604052809291908181526020018280546001816001161561010002031660029004801561332a5780601f106132ff5761010080835404028352916020019161332a565b820191906000526020600020905b81548152906001019060200180831161330d57829003601f168201915b505050505081526020016001820154815260200160028201548152602001600382015481525050905060018084604051613364919061460b565b90815260200160405180910390206002015414156133f15760018360405161338c919061460b565b9081526020016040518091039020600080820160006133ab91906139a5565b600182016000905560028201600090556003820160009055505060028160600151815481106133d657fe5b9060005260206000200160006133ec91906139a5565b613484565b81600184604051613402919061460b565b90815260200160405180910390206001015403600184604051613425919061460b565b9081526020016040518091039020600101819055506001808460405161344b919061460b565b9081526020016040518091039020600201540360018460405161346e919061460b565b9081526020016040518091039020600201819055505b600360008981526020019081526020016000206000808201600090556001820160006101000a81549060ff02191690556001820160016101000a81549073ffffffffffffffffffffffffffffffffffffffff021916905560028201600090556003820160009055600482016000808201600061350091906139a5565b60018201600061351091906139a5565b60028201600061352091906139a5565b600382016000905550506008820160009055505060048760c001518154811061354557fe5b90600052602060002001600061355b91906139a5565b60058760c001518154811061356c57fe5b90600052602060002001600090555050505b3373ffffffffffffffffffffffffffffffffffffffff16857f779e2848f275ef7b62be066e59dc34b2b8d79758079849859de844a3d9b9fb0d856040516135c59190614b24565b60405180910390a35050505050565b6060600082141561361c576040518060400160405280600181526020017f300000000000000000000000000000000000000000000000000000000000000081525090506136fc565b600082905060005b60008214613646578080600101915050600a828161363e57fe5b049150613624565b6060816040519080825280601f01601f19166020018201604052801561367b5781602001600182028038833980820191505090505b50905060006001830390505b600086146136f457600a868161369957fe5b0660300160f81b828280600190039350815181106136b357fe5b60200101907effffffffffffffffffffffffffffffffffffffffffffffffffffffffffffff1916908160001a905350600a86816136ec57fe5b049550613687565b819450505050505b919050565b60008060066000848152602001908152602001600020600201541161375b576040517f08c379a000000000000000000000000000000000000000000000000000000000815260040161375290614964565b60405180910390fd5b6000600660008481526020019081526020016000209050428160020154106137b8576040517f08c379a00000000000000000000000000000000000000000000000000000000081526004016137af906149a4565b60405180910390fd5b80600101548160000154106137e95760018160030160006101000a81548160ff021916908315150217905550613807565b60008160030160006101000a81548160ff0219169083151502179055505b8060030160009054906101000a900460ff16915050919050565b6040518060800160405280606081526020016000815260200160008152602001600081525090565b60405180610140016040528060008152602001600015158152602001600073ffffffffffffffffffffffffffffffffffffffff16815260200160008152602001600081526020016138986139ed565b8152602001600081525090565b828054600181600116156101000203166002900490600052602060002090601f016020900481019282601f106138e657805160ff1916838001178555613914565b82800160010185558215613914579182015b828111156139135782518255916020019190600101906138f8565b5b5090506139219190613a15565b5090565b828054600181600116156101000203166002900490600052602060002090601f016020900481019282601f1061396657805160ff1916838001178555613994565b82800160010185558215613994579182015b82811115613993578251825591602001919060010190613978565b5b5090506139a19190613a15565b5090565b50805460018160011615610100020316600290046000825580601f106139cb57506139ea565b601f0160209004906000526020600020908101906139e99190613a15565b5b50565b6040518060800160405280606081526020016060815260200160608152602001600081525090565b613a3791905b80821115613a33576000816000905550600101613a1b565b5090565b90565b600081359050613a4981614df4565b92915050565b600081519050613a5e81614df4565b92915050565b600081359050613a7381614e0b565b92915050565b60008083601f840112613a8b57600080fd5b8235905067ffffffffffffffff811115613aa457600080fd5b602083019150836001820283011115613abc57600080fd5b9250929050565b600082601f830112613ad457600080fd5b8135613ae7613ae282614b9c565b614b6f565b91508082526020830160208301858383011115613b0357600080fd5b613b0e838284614da1565b50505092915050565b600081359050613b2681614e22565b92915050565b600060208284031215613b3e57600080fd5b6000613b4c84828501613a4f565b91505092915050565b600060208284031215613b6757600080fd5b6000613b7584828501613a64565b91505092915050565b60008060408385031215613b9157600080fd5b6000613b9f85828601613a64565b9250506020613bb085828601613b17565b9150509250929050565b600080600060608486031215613bcf57600080fd5b6000613bdd86828701613a64565b9350506020613bee86828701613b17565b9250506040613bff86828701613a3a565b9150509250925092565b600060208284031215613c1b57600080fd5b600082013567ffffffffffffffff811115613c3557600080fd5b613c4184828501613ac3565b91505092915050565b600060208284031215613c5c57600080fd5b6000613c6a84828501613b17565b91505092915050565b60008060008060008060008060a0898b031215613c8f57600080fd5b6000613c9d8b828c01613b17565b985050602089013567ffffffffffffffff811115613cba57600080fd5b613cc68b828c01613a79565b9750975050604089013567ffffffffffffffff811115613ce557600080fd5b613cf18b828c01613a79565b9550955050606089013567ffffffffffffffff811115613d1057600080fd5b613d1c8b828c01613a79565b93509350506080613d2f8b828c01613b17565b9150509295985092959890939650565b6000613d4b8383613f48565b60208301905092915050565b6000613d638383613f66565b60208301905092915050565b6000613d7b8383614022565b905092915050565b6000613d8f83836145c5565b60208301905092915050565b613da481614d47565b82525050565b613db381614cf5565b82525050565b6000613dc482614c0e565b613dce8185614c84565b9350613dd983614bc8565b8060005b83811015613e0a578151613df18882613d3f565b9750613dfc83614c50565b925050600181019050613ddd565b5085935050505092915050565b6000613e2282614c19565b613e2c8185614c95565b9350613e3783614bd5565b8060005b83811015613e68578151613e4f8882613d57565b9750613e5a83614c5d565b925050600181019050613e3b565b5085935050505092915050565b6000613e8082614c24565b613e8a8185614ca6565b935083602082028501613e9c85614be2565b8060005b85811015613ed85784840389528151613eb98582613d6f565b9450613ec483614c6a565b925060208a01995050600181019050613ea0565b50829750879550505050505092915050565b6000613ef582614c2f565b613eff8185614cb7565b9350613f0a83614bef565b8060005b83811015613f3b578151613f228882613d83565b9750613f2d83614c77565b925050600181019050613f0e565b5085935050505092915050565b613f5181614d07565b82525050565b613f6081614d07565b82525050565b613f6f81614d13565b82525050565b613f7e81614d13565b82525050565b613f8d81614d59565b82525050565b6000613f9f8385614cea565b9350613fac838584614da1565b82840190509392505050565b6000613fc382614c45565b613fcd8185614cd9565b9350613fdd818560208601614db0565b613fe681614de3565b840191505092915050565b6000613ffc82614c45565b6140068185614cea565b9350614016818560208601614db0565b80840191505092915050565b600061402d82614c3a565b6140378185614cc8565b9350614047818560208601614db0565b61405081614de3565b840191505092915050565b600061406682614c3a565b6140708185614cd9565b9350614080818560208601614db0565b61408981614de3565b840191505092915050565b600061409f82614c3a565b6140a98185614cea565b93506140b9818560208601614db0565b80840191505092915050565b6000815460018116600081146140e257600181146141075761414b565b607f60028304166140f38187614cea565b955060ff198316865280860193505061414b565b600282046141158187614cea565b955061412085614bfc565b60005b8281101561414257815481890152600182019150602081019050614123565b82880195505050505b505092915050565b6000614160602283614cd9565b91507f4c697374696e6720697320616c726561647920696e206170706c79207374616760008301527f652e0000000000000000000000000000000000000000000000000000000000006020830152604082019050919050565b60006141c6601f83614cd9565b91507f566f74652072657761726420697320616c726561647920636c61696d65642e006000830152602082019050919050565b6000614206601483614cd9565b91507f506f6c6c20646f6573206e6f742065786973742e0000000000000000000000006000830152602082019050919050565b6000614246601a83614cd9565b91507f4c697374696e67206973206e6f74206368616c6c656e6765642e0000000000006000830152602082019050919050565b6000614286601883614cd9565b91507f436f6d6d697420706572696f64206973206163746976652e00000000000000006000830152602082019050919050565b60006142c6601e83614cd9565b91507f566f74696e6720726577617264207472616e73666572206661696c65642e00006000830152602082019050919050565b6000614306601783614cd9565b91507f4170706c7920737461676520686173207061737365642e0000000000000000006000830152602082019050919050565b6000614346602183614cd9565b91507f4e6f7420656e6f756768207374616b6520666f72206170706c69636174696f6e60008301527f2e000000000000000000000000000000000000000000000000000000000000006020830152604082019050919050565b60006143ac601783614cd9565b91507f4c697374696e6720646f6573206e6f742065786973742e0000000000000000006000830152602082019050919050565b60006143ec601983614cd9565b91507f436f6d6d697420706572696f6420686173207061737365642e000000000000006000830152602082019050919050565b600061442c601e83614cd9565b91507f4368616c6c656e6765207374616b652072657475726e206661696c65642e00006000830152602082019050919050565b600061446c602683614cd9565b91507f4e6f7420656e6f756768207374616b652070617373656420666f72206368616c60008301527f6c656e67652e00000000000000000000000000000000000000000000000000006020830152604082019050919050565b60006144d2601a83614cd9565b91507f4368616c6c656e6765206973206e6f74207265736f6c7665642e0000000000006000830152602082019050919050565b6000614512601e83614cd9565b91507f4c697374696e6720697320616c7265616479206368616c6c656e6765642e00006000830152602082019050919050565b6000614552601683614cd9565b91507f546f6b656e207472616e73666572206661696c65642e000000000000000000006000830152602082019050919050565b6000614592601f83614cd9565b91507f4c697374696e6720697320616c72656164792077686974656c69737465642e006000830152602082019050919050565b6145ce81614d3d565b82525050565b6145dd81614d3d565b82525050565b60006145f0828688613f93565b91506145fd828486613f93565b915081905095945050505050565b60006146178284613ff1565b915081905092915050565b600061462e828a614094565b915061463a8289613ff1565b91506146468288614094565b91506146528287613ff1565b915061465e8286614094565b915061466a8285613ff1565b91506146768284613ff1565b915081905098975050505050505050565b600061469382846140c5565b915081905092915050565b60006060820190506146b36000830186613d9b565b6146c06020830185613daa565b6146cd60408301846145d4565b949350505050565b60006040820190506146ea6000830185613d9b565b6146f760208301846145d4565b9392505050565b60006040820190506147136000830185613daa565b61472060208301846145d4565b9392505050565b600060608201905081810360008301526147418186613e75565b905081810360208301526147558185613e17565b905081810360408301526147698184613db9565b9050949350505050565b6000606082019050818103600083015261478d8186613e75565b905081810360208301526147a18185613eea565b905081810360408301526147b58184613eea565b9050949350505050565b60006020820190506147d46000830184613f57565b92915050565b600060a0820190506147ef6000830188613f57565b6147fc6020830187613daa565b61480960408301866145d4565b61481660608301856145d4565b81810360808301526148288184613fb8565b90509695505050505050565b60006020820190506148496000830184613f75565b92915050565b60006020820190506148646000830184613f84565b92915050565b60006020820190508181036000830152614884818461405b565b905092915050565b600060a08201905081810360008301526148a68188613fb8565b90506148b56020830187613daa565b6148c260408301866145d4565b6148cf60608301856145d4565b6148dc60808301846145d4565b9695505050505050565b600060608201905081810360008301526149008186613fb8565b905061490f60208301856145d4565b61491c60408301846145d4565b949350505050565b6000602082019050818103600083015261493d81614153565b9050919050565b6000602082019050818103600083015261495d816141b9565b9050919050565b6000602082019050818103600083015261497d816141f9565b9050919050565b6000602082019050818103600083015261499d81614239565b9050919050565b600060208201905081810360008301526149bd81614279565b9050919050565b600060208201905081810360008301526149dd816142b9565b9050919050565b600060208201905081810360008301526149fd816142f9565b9050919050565b60006020820190508181036000830152614a1d81614339565b9050919050565b60006020820190508181036000830152614a3d8161439f565b9050919050565b60006020820190508181036000830152614a5d816143df565b9050919050565b60006020820190508181036000830152614a7d8161441f565b9050919050565b60006020820190508181036000830152614a9d8161445f565b9050919050565b60006020820190508181036000830152614abd816144c5565b9050919050565b60006020820190508181036000830152614add81614505565b9050919050565b60006020820190508181036000830152614afd81614545565b9050919050565b60006020820190508181036000830152614b1d81614585565b9050919050565b6000602082019050614b3960008301846145d4565b92915050565b6000604082019050614b5460008301856145d4565b8181036020830152614b668184613fb8565b90509392505050565b6000604051905081810181811067ffffffffffffffff82111715614b9257600080fd5b8060405250919050565b600067ffffffffffffffff821115614bb357600080fd5b601f19601f8301169050602081019050919050565b6000602082019050919050565b6000602082019050919050565b6000602082019050919050565b6000602082019050919050565b60008160005260206000209050919050565b600081519050919050565b600081519050919050565b600081519050919050565b600081519050919050565b600081519050919050565b600081519050919050565b6000602082019050919050565b6000602082019050919050565b6000602082019050919050565b6000602082019050919050565b600082825260208201905092915050565b600082825260208201905092915050565b600082825260208201905092915050565b600082825260208201905092915050565b600082825260208201905092915050565b600082825260208201905092915050565b600081905092915050565b6000614d0082614d1d565b9050919050565b60008115159050919050565b6000819050919050565b600073ffffffffffffffffffffffffffffffffffffffff82169050919050565b6000819050919050565b6000614d5282614d7d565b9050919050565b6000614d6482614d6b565b9050919050565b6000614d7682614d1d565b9050919050565b6000614d8882614d8f565b9050919050565b6000614d9a82614d1d565b9050919050565b82818337600083830152505050565b60005b83811015614dce578082015181840152602081019050614db3565b83811115614ddd576000848401525b50505050565b6000601f19601f8301169050919050565b614dfd81614d07565b8114614e0857600080fd5b50565b614e1481614d13565b8114614e1f57600080fd5b50565b614e2b81614d3d565b8114614e3657600080fd5b5056fea265627a7a72305820666e26b86df1a0358fb021cda1b44daf836f4f87761a32bc447b941639842d906c6578706572696d656e74616cf50037",
  "source": "// Most of the code in this contract is derived from the generic TCR implementation from Mike Goldin and (the adChain) team\n// This contract strips out most of the details and only keeps the basic TCR functionality (apply/propose, challenge, vote, resolve)\n// Consider this to be the \"hello world\" for TCR implementation\n// For real world usage, please refer to the generic TCR implementation\n// https://github.com/skmgoldin/tcr\n\npragma solidity ^0.5.8;\npragma experimental ABIEncoderV2;\n\nimport \"../node_modules/openzeppelin-solidity/contracts/token/ERC20/ERC20.sol\";\nimport \"../node_modules/openzeppelin-solidity/contracts/math/SafeMath.sol\";\n\ncontract Tcr {\n\n    using SafeMath for uint;\n\n    struct Data {\n        string rollNumber;\n        string course ;\n        string review;\n        uint rating;\n\t}\n\n    struct Course{\n        string courseCode;\n        uint courseTotal;\n        uint numberOfReviews;\n        uint arrIndex;\n\t}\n\n    struct Listing {\n        uint applicationExpiry; // Expiration date of apply stage\n        bool whitelisted;       // Indicates registry status\n        address owner;          // Owner of Listing\n        uint deposit;           // Number of tokens in the listing\n        uint challengeId;       // the challenge id of the current challenge\n        Data data;            // name of listing (for UI)\n        uint arrIndex;          // arrayIndex of listing in listingNames array (for deletion)\n\t\n    }\n\n    // instead of using the elegant PLCR voting, we are using just a list because this is *simple-TCR*\n    struct Vote {\n        bool value;\n        uint stake;\n        bool claimed;\n    }\n\n    struct Poll {\n        uint votesFor;\n        uint votesAgainst;\n        uint commitEndDate;\n        bool passed;\n        mapping(address => Vote) votes; // revealed by default; no partial locking\n    }\n\n    struct Challenge {\n        address challenger;     // Owner of Challenge3\n        bool resolved;          // Indication of if challenge is resolved\n        uint stake;             // Number of tokens at stake for either party during challenge\n        uint rewardPool;        // number of tokens from losing side - winning reward\n        uint totalTokens;       // number of tokens from winning side - to be returned\n    }\n\n    // Maps challengeIDs to associated challenge data\n    mapping(uint => Challenge) private challenges;\n\n    mapping(string => Course) private courses;\n    string[] public courseNames;\n\n    // Maps listingHashes to associated listingHash data\n    mapping(bytes32 => Listing) private listings;\n    string[] public listingNames;\n    bytes32[] public listingHashes;\n\n    // Maps polls to associated challenge\n    mapping(uint => Poll) private polls;\n\n    // Global Variables\n    ERC20 public token;\n    string public name;\n    uint public minDeposit;\n    uint public applyStageLen;\n    uint public commitStageLen;\n\n    uint constant private INITIAL_POLL_NONCE = 0;\n    uint public pollNonce;\n\n    // Events\n    event _Application(bytes32 indexed listingHash, uint deposit, string data, address indexed applicant);\n    event _Challenge(bytes32 indexed listingHash, uint challengeId, address indexed challenger);\n    event _Vote(bytes32 indexed listingHash, uint challengeId, address indexed voter);\n    event _ResolveChallenge(bytes32 indexed listingHash, uint challengeId, address indexed resolver);\n    event _RewardClaimed(uint indexed challengeId, uint reward, address indexed voter);\n\n    // using the constructor to initialize the TCR parameters\n    // again, to keep it simple, skipping the Parameterizer and ParameterizerFactory\n    constructor(\n        string memory _name,\n        address _token,\n        uint[] memory _parameters\n    ) public {\n        require(_token != address(0), \"Token address should not be 0 address.\");\n\n        token = ERC20(_token);\n        name = _name;\n\n        // minimum deposit for listing to be whitelisted\n        minDeposit = _parameters[0];\n\n        // period over which applicants wait to be whitelisted\n        applyStageLen = _parameters[1];\n\n        // length of commit period for voting\n        commitStageLen = _parameters[2];\n\n        // Initialize the poll nonce\n        pollNonce = INITIAL_POLL_NONCE;\n    }\n\n    function uint2str(uint _i) internal pure returns (string memory _uintAsString) {\n        if (_i == 0) {\n            return \"0\";\n        }\n        uint j = _i;\n        uint len;\n        while (j != 0) {\n            len++;\n            j /= 10;\n        }\n        bytes memory bstr = new bytes(len);\n        uint k = len - 1;\n        while (_i != 0) {\n            bstr[k--] = byte(uint8(48 + _i % 10));\n            _i /= 10;\n        }\n        return string(bstr);\n\t}\n\n    function strReview(Data memory data) private pure returns (string memory){\n\t    string memory space = \" \";\n    \treturn string(abi.encodePacked(data.rollNumber, space, data.course, space, data.review, space, uint2str(data.rating)));\n    }\n    // returns whether a listing is already whitelisted\n    function isWhitelisted(bytes32 _listingHash) public view returns (bool whitelisted) {\n        return listings[_listingHash].whitelisted;\n    }\n\n    // returns if a listing is in apply stage\n    function appWasMade(bytes32 _listingHash) public view returns (bool exists) {\n        return listings[_listingHash].applicationExpiry > 0;\n    }\n\n    // get all listing names (for UI)\n    // not to be used in a production use case\n    function getAllListings() public view returns (string[] memory, bytes32[] memory, bool[] memory) {\n        string[] memory listingArr = new string[](listingNames.length);\n        bytes32[] memory hashArr = new bytes32[](listingHashes.length);\n        bool[] memory whitelistedArr = new bool[](listingNames.length);\n        Listing memory templisting;\n        for (uint256 i = 0; i < listingNames.length; i++) {\n            templisting = listings[listingHashes[i]];\n            listingArr[i] = strReview(templisting.data);\n\t        hashArr[i] = listingHashes[i];\n            whitelistedArr[i] = templisting.whitelisted;\n        }\n        return (listingArr, hashArr, whitelistedArr);\n    }\n\n    function getAllCourses() public view returns (string[] memory,uint[] memory, uint[] memory) {\n        string[] memory courseArr = new string[](courseNames.length);\n\t    uint[] memory coursetotalArr = new uint[](courseNames.length);\n\t    uint[] memory numberReviewsArr = new uint[] (courseNames.length);\n\n        for (uint256 i = 0; i < courseNames.length; i++) {\n            courseArr[i] = courseNames[i];\n\t        Course memory temp_course = courses[courseNames[i]];\n\t        coursetotalArr[i] = temp_course.courseTotal;\n    \t    numberReviewsArr[i] = temp_course.numberOfReviews;\n        }\n        return (courseArr, coursetotalArr, numberReviewsArr);\n    }\n\n    // get details of this registry (for UI)\n    function getDetails() public view returns (string memory, address, uint, uint, uint) {\n        string memory _name = name;\n        return (_name, address(token), minDeposit, applyStageLen, commitStageLen);\n    }\n\n    // get details of a listing (for UI)\n    function getListingDetails(bytes32 _listingHash) public view returns (bool, address, uint, uint, string memory) {\n        Listing memory listingIns = listings[_listingHash];\n        // Listing must be in apply stage or already on the whitelist\n        require(appWasMade(_listingHash) || listingIns.whitelisted, \"Listing does not exist.\");\n\n        return (listingIns.whitelisted, listingIns.owner, listingIns.deposit, listingIns.challengeId,strReview(listingIns.data));\n    }\n\n    function getCourseDetails(string memory _courseHash) public view returns (string memory, uint, uint){\n\t    Course memory courseIns = courses[_courseHash];\n\t    return (courseIns.courseCode, courseIns.courseTotal.div(courseIns.numberOfReviews),courseIns.numberOfReviews);\n    }\n\n    function CourseExists(string memory _courseHash) public view returns (uint) {\n        return courses[_courseHash].numberOfReviews;\n    }\n\n    function createNewCourse(string memory _courseCode, uint _course_rating) private {\n\t    if (CourseExists(_courseCode) > 0){\n            Course storage temp_course = courses[_courseCode];\n            temp_course.numberOfReviews = temp_course.numberOfReviews + 1;\n            temp_course.courseTotal = (temp_course.courseTotal + _course_rating);\n        } else {\n            courses[_courseCode] = Course({\n                courseCode: _courseCode,\n                courseTotal : _course_rating,\n                numberOfReviews : 1,\n                arrIndex : courseNames.length\n            });\n    \t    courseNames.push(_courseCode);\n\t    }\n    }\n\n    function createNewListing(bytes32 _listingHash, address sender, uint _amount,  string memory _roll, string memory _course, string memory _review, uint _rating) private  {\n    \t// Sets owner\n        Listing storage listing = listings[_listingHash];\n        listing.owner = sender;\n        listing.data = Data({\n            rollNumber: _roll,\n            course: _course,\n            review: _review,\n            rating : _rating\n        });\n\n\t    listingHashes.push(_listingHash);\n        listingNames.push(strReview(listing.data));\n        listing.arrIndex = listingNames.length - 1;\n\n        // Sets apply stage end time\n        // now or block.timestamp is safe here (can live with ~15 sec apprmberOoximation)\n        /* solium-disable-next-line security/no-block-members */\n        listing.applicationExpiry = now.add(applyStageLen);\n        listing.deposit = _amount;\n    }\n\n    // proposes a listing to be whitelisted\n    function propose(uint _amount, string calldata _roll,  string calldata _course, string calldata _review, uint _rating ) external {\n\t    //change started\n\t    string memory source = string(abi.encodePacked(_roll, _course));\n\t    bytes32 _listingHash;\n    \tif (bytes(source).length == 0) {\n            _listingHash = 0x0;\n    \t}\n    \tassembly {\n            _listingHash := mload(add(source, 32))\n    \t}\n\t    //change ended\n\t    require(!isWhitelisted(_listingHash), \"Listing is already whitelisted.\");\n        require(!appWasMade(_listingHash), \"Listing is already in apply stage.\");\n        require(_amount >= minDeposit, \"Not enough stake for application.\");\n\n\t    createNewListing(_listingHash, msg.sender, _amount,  _roll, _course, _review, _rating);\n\t    createNewCourse(_course, _rating);\n\n        // Transfer tokens from user\n        require(token.transferFrom(msg.sender, address(this), _amount), \"Token transfer failed.\");\n        emit _Application(_listingHash, _amount, strReview(listings[_listingHash].data), msg.sender);\n    }\n\n    // challenges a listing from being whitelisted\n    function challenge(bytes32 _listingHash, uint _amount)\n        external returns (uint challengeId) {\n        Listing storage listing = listings[_listingHash];\n\n        // Listing must be in apply stage or already on the whitelist\n        require(appWasMade(_listingHash) || listing.whitelisted, \"Listing does not exist.\");\n\n        // Prevent multiple challenges\n        require(listing.challengeId == 0 || challenges[listing.challengeId].resolved, \"Listing is already challenged.\");\n\n        // check if apply stage is active\n        /* solium-disable-next-line security/no-block-members */\n        require(listing.applicationExpiry > now, \"Apply stage has passed.\");\n\n        // check if enough amount is staked for challenge\n        require(_amount >= listing.deposit, \"Not enough stake passed for challenge.\");\n\n        pollNonce = pollNonce + 1;\n        challenges[pollNonce] = Challenge({\n            challenger: msg.sender,\n            stake: _amount,\n            resolved: false,\n            totalTokens: 0,\n            rewardPool: 0\n        });\n\n        // create a new poll for the challenge\n        polls[pollNonce] = Poll({\n            votesFor: 0,\n            votesAgainst: 0,\n            passed: false,\n            commitEndDate: now.add(commitStageLen) /* solium-disable-line security/no-block-members */\n        });\n\n        // Updates listingHash to store most recent challenge\n        listing.challengeId = pollNonce;\n\n        // Transfer tokens from challenger\n        require(token.transferFrom(msg.sender, address(this), _amount), \"Token transfer failed.\");\n\n        emit _Challenge(_listingHash, pollNonce, msg.sender);\n        return pollNonce;\n    }\n\n    // commits a vote for/against a listing\n    // plcr voting is not being used here\n    // to keep it simple, we just store the choice as a bool - true is for and false is against\n    function vote(bytes32 _listingHash, uint _amount, bool _choice) public {\n        Listing storage listing = listings[_listingHash];\n\n        // Listing must be in apply stage or already on the whitelist\n        require(appWasMade(_listingHash) || listing.whitelisted, \"Listing does not exist.\");\n\n        // Check if listing is challenged\n        require(listing.challengeId > 0 && !challenges[listing.challengeId].resolved, \"Listing is not challenged.\");\n\n        Poll storage poll = polls[listing.challengeId];\n\n        // check if commit stage is active\n        /* solium-disable-next-line security/no-block-members */\n        require(poll.commitEndDate > now, \"Commit period has passed.\");\n\n        // Transfer tokens from voter\n        require(token.transferFrom(msg.sender, address(this), _amount), \"Token transfer failed.\");\n\n        if(_choice) {\n            poll.votesFor += _amount;\n        } else {\n            poll.votesAgainst += _amount;\n        }\n\n        // TODO: fix vote override when same person is voting again\n        poll.votes[msg.sender] = Vote({\n            value: _choice,\n            stake: _amount,\n            claimed: false\n        });\n\n        emit _Vote(_listingHash, listing.challengeId, msg.sender);\n    }\n\n    // check if the listing can be whitelisted\n    function canBeWhitelisted(bytes32 _listingHash) public view returns (bool) {\n        uint challengeId = listings[_listingHash].challengeId;\n\n        // Ensures that the application was made,\n        // the application period has ended,\n        // the listingHash can be whitelisted,\n        // and either: the challengeId == 0, or the challenge has been resolved.\n        /* solium-disable */\n        if (appWasMade(_listingHash) && \n            listings[_listingHash].applicationExpiry < now && \n            !isWhitelisted(_listingHash) &&\n            (challengeId == 0 || challenges[challengeId].resolved == true)) {\n            return true; \n        }\n\n        return false;\n    }\n\n    // updates the status of a listing\n    function updateStatus(bytes32 _listingHash) public {\n        if (canBeWhitelisted(_listingHash)) {\n            listings[_listingHash].whitelisted = true;\n        } else {\n            resolveChallenge(_listingHash);\n        }\n    }\n\n    // ends a poll and returns if the poll passed or not\n    function endPoll(uint challengeId) private returns (bool didPass) {\n        require(polls[challengeId].commitEndDate > 0, \"Poll does not exist.\");\n        Poll storage poll = polls[challengeId];\n\n        // check if commit stage is active\n        /* solium-disable-next-line security/no-block-members */\n        require(poll.commitEndDate < now, \"Commit period is active.\");\n\n        if (poll.votesFor >= poll.votesAgainst) {\n            poll.passed = true;\n        } else {\n            poll.passed = false;\n        }\n\n        return poll.passed;\n    }\n\n    // resolves a challenge and calculates rewards\n    function resolveChallenge(bytes32 _listingHash) private {\n        // Check if listing is challenged\n        Listing memory listing = listings[_listingHash];\n        require(listing.challengeId > 0 && !challenges[listing.challengeId].resolved, \"Listing is not challenged.\");\n\n        uint challengeId = listing.challengeId;\n\n        // end the poll\n        bool pollPassed = endPoll(challengeId);\n\n        // updated challenge status\n        challenges[challengeId].resolved = true;\n\n        address challenger = challenges[challengeId].challenger;\n\n        // Case: challenge failed\n        if (pollPassed) {\n            challenges[challengeId].totalTokens = polls[challengeId].votesFor;\n            challenges[challengeId].rewardPool = challenges[challengeId].stake + polls[challengeId].votesAgainst;\n            listings[_listingHash].whitelisted = true;\n        } else { // Case: challenge succeeded\n            // give back the challenge stake to the challenger\n            require(token.transfer(challenger, challenges[challengeId].stake), \"Challenge stake return failed.\");\n            challenges[challengeId].totalTokens = polls[challengeId].votesAgainst;\n            challenges[challengeId].rewardPool = listing.deposit + polls[challengeId].votesFor;\n\n\t    //Data memory data = listings[_listingHash].Data;\n\t    string memory courseHash = listings[_listingHash].data.course;\n\t    uint rating = listings[_listingHash].data.rating;\n\t    Course memory temp_course = courses[courseHash];\t\n\t    if (courses[courseHash].numberOfReviews == 1)\n\t\t{delete courses[courseHash];\n\t\tdelete courseNames[temp_course.arrIndex];\n\t\t}\n\t    else {\n\t    courses[courseHash].courseTotal = courses[courseHash].courseTotal  - rating;\n\t    courses[courseHash].numberOfReviews = courses[courseHash].numberOfReviews - 1;\n\t\t}\n        delete listings[_listingHash];\n        delete listingNames[listing.arrIndex];\n\t    delete listingHashes[listing.arrIndex];\n        }\n\n        emit _ResolveChallenge(_listingHash, challengeId, msg.sender);\n    }\n\n    // claim rewards for a vote\n    function claimRewards(uint challengeId) public {\n        // check if challenge is resolved\n        require(challenges[challengeId].resolved == true, \"Challenge is not resolved.\");\n        \n        Poll storage poll = polls[challengeId];\n        Vote storage voteInstance = poll.votes[msg.sender];\n        \n        // check if vote reward is already claimed\n        require(voteInstance.claimed == false, \"Vote reward is already claimed.\");\n\n        // if winning party, calculate reward and transfer\n        if((poll.passed && voteInstance.value) || (!poll.passed && !voteInstance.value)) {\n            uint reward = (challenges[challengeId].rewardPool.mul(voteInstance.stake)).div(challenges[challengeId].totalTokens);\n            uint total = voteInstance.stake.add(reward);\n            require(token.transfer(msg.sender, total), \"Voting reward transfer failed.\");\n            emit _RewardClaimed(challengeId, total, msg.sender);\n        }\n\n        voteInstance.claimed = true;\n    }\n}\n",
  "sourcePath": "/home/jukebox/Desktop/Acads/7-Sem/EE475/project/contracts/tcr.sol",
  "compiler": {
    "name": "solc",
    "version": "0.5.8+commit.23d335f2.Emscripten.clang"
  },
  "schemaVersion": "3.0.16",
  "updatedAt": "2019-10-29T16:43:42.838Z",
  "devdoc": {
    "methods": {}
  },
  "userdoc": {
    "methods": {}
  }
}