{
  "contractName": "Tcr",
  "abi": [
    {
      "constant": true,
      "inputs": [],
      "name": "name",
      "outputs": [
        {
          "name": "",
          "type": "string"
        }
      ],
      "payable": false,
      "stateMutability": "view",
      "type": "function"
    },
    {
      "constant": true,
      "inputs": [],
      "name": "minDeposit",
      "outputs": [
        {
          "name": "",
          "type": "uint256"
        }
      ],
      "payable": false,
      "stateMutability": "view",
      "type": "function"
    },
    {
      "constant": true,
      "inputs": [],
      "name": "applyStageLen",
      "outputs": [
        {
          "name": "",
          "type": "uint256"
        }
      ],
      "payable": false,
      "stateMutability": "view",
      "type": "function"
    },
    {
      "constant": true,
      "inputs": [],
      "name": "pollNonce",
      "outputs": [
        {
          "name": "",
          "type": "uint256"
        }
      ],
      "payable": false,
      "stateMutability": "view",
      "type": "function"
    },
    {
      "constant": true,
      "inputs": [],
      "name": "commitStageLen",
      "outputs": [
        {
          "name": "",
          "type": "uint256"
        }
      ],
      "payable": false,
      "stateMutability": "view",
      "type": "function"
    },
    {
      "constant": true,
      "inputs": [
        {
          "name": "",
          "type": "uint256"
        }
      ],
      "name": "listingNames",
      "outputs": [
        {
          "name": "",
          "type": "string"
        }
      ],
      "payable": false,
      "stateMutability": "view",
      "type": "function"
    },
    {
      "constant": true,
      "inputs": [
        {
          "name": "",
          "type": "uint256"
        }
      ],
      "name": "courseNames",
      "outputs": [
        {
          "name": "",
          "type": "string"
        }
      ],
      "payable": false,
      "stateMutability": "view",
      "type": "function"
    },
    {
      "constant": true,
      "inputs": [
        {
          "name": "",
          "type": "uint256"
        }
      ],
      "name": "listingHashes",
      "outputs": [
        {
          "name": "",
          "type": "bytes32"
        }
      ],
      "payable": false,
      "stateMutability": "view",
      "type": "function"
    },
    {
      "constant": true,
      "inputs": [],
      "name": "token",
      "outputs": [
        {
          "name": "",
          "type": "address"
        }
      ],
      "payable": false,
      "stateMutability": "view",
      "type": "function"
    },
    {
      "inputs": [
        {
          "name": "_name",
          "type": "string"
        },
        {
          "name": "_token",
          "type": "address"
        },
        {
          "name": "_parameters",
          "type": "uint256[]"
        }
      ],
      "payable": false,
      "stateMutability": "nonpayable",
      "type": "constructor"
    },
    {
      "anonymous": false,
      "inputs": [
        {
          "indexed": true,
          "name": "listingHash",
          "type": "bytes32"
        },
        {
          "indexed": false,
          "name": "deposit",
          "type": "uint256"
        },
        {
          "indexed": false,
          "name": "data",
          "type": "string"
        },
        {
          "indexed": true,
          "name": "applicant",
          "type": "address"
        }
      ],
      "name": "_Application",
      "type": "event"
    },
    {
      "anonymous": false,
      "inputs": [
        {
          "indexed": true,
          "name": "listingHash",
          "type": "bytes32"
        },
        {
          "indexed": false,
          "name": "challengeId",
          "type": "uint256"
        },
        {
          "indexed": true,
          "name": "challenger",
          "type": "address"
        }
      ],
      "name": "_Challenge",
      "type": "event"
    },
    {
      "anonymous": false,
      "inputs": [
        {
          "indexed": true,
          "name": "listingHash",
          "type": "bytes32"
        },
        {
          "indexed": false,
          "name": "challengeId",
          "type": "uint256"
        },
        {
          "indexed": true,
          "name": "voter",
          "type": "address"
        }
      ],
      "name": "_Vote",
      "type": "event"
    },
    {
      "anonymous": false,
      "inputs": [
        {
          "indexed": true,
          "name": "listingHash",
          "type": "bytes32"
        },
        {
          "indexed": false,
          "name": "challengeId",
          "type": "uint256"
        },
        {
          "indexed": true,
          "name": "resolver",
          "type": "address"
        }
      ],
      "name": "_ResolveChallenge",
      "type": "event"
    },
    {
      "anonymous": false,
      "inputs": [
        {
          "indexed": true,
          "name": "challengeId",
          "type": "uint256"
        },
        {
          "indexed": false,
          "name": "reward",
          "type": "uint256"
        },
        {
          "indexed": true,
          "name": "voter",
          "type": "address"
        }
      ],
      "name": "_RewardClaimed",
      "type": "event"
    },
    {
      "constant": true,
      "inputs": [
        {
          "name": "_listingHash",
          "type": "bytes32"
        }
      ],
      "name": "isWhitelisted",
      "outputs": [
        {
          "name": "whitelisted",
          "type": "bool"
        }
      ],
      "payable": false,
      "stateMutability": "view",
      "type": "function"
    },
    {
      "constant": true,
      "inputs": [
        {
          "name": "_listingHash",
          "type": "bytes32"
        }
      ],
      "name": "appWasMade",
      "outputs": [
        {
          "name": "exists",
          "type": "bool"
        }
      ],
      "payable": false,
      "stateMutability": "view",
      "type": "function"
    },
    {
      "constant": true,
      "inputs": [],
      "name": "getAllListings",
      "outputs": [
        {
          "name": "",
          "type": "string[]"
        },
        {
          "name": "",
          "type": "bytes32[]"
        },
        {
          "name": "",
          "type": "bool[]"
        }
      ],
      "payable": false,
      "stateMutability": "view",
      "type": "function"
    },
    {
      "constant": true,
      "inputs": [],
      "name": "getDetails",
      "outputs": [
        {
          "name": "",
          "type": "string"
        },
        {
          "name": "",
          "type": "address"
        },
        {
          "name": "",
          "type": "uint256"
        },
        {
          "name": "",
          "type": "uint256"
        },
        {
          "name": "",
          "type": "uint256"
        }
      ],
      "payable": false,
      "stateMutability": "view",
      "type": "function"
    },
    {
      "constant": true,
      "inputs": [
        {
          "name": "_listingHash",
          "type": "bytes32"
        }
      ],
      "name": "getListingDetails",
      "outputs": [
        {
          "name": "",
          "type": "bool"
        },
        {
          "name": "",
          "type": "address"
        },
        {
          "name": "",
          "type": "uint256"
        },
        {
          "name": "",
          "type": "uint256"
        },
        {
          "name": "",
          "type": "string"
        }
      ],
      "payable": false,
      "stateMutability": "view",
      "type": "function"
    },
    {
      "constant": true,
      "inputs": [
        {
          "name": "_courseHash",
          "type": "string"
        }
      ],
      "name": "CourseExists",
      "outputs": [
        {
          "name": "",
          "type": "uint256"
        }
      ],
      "payable": false,
      "stateMutability": "view",
      "type": "function"
    },
    {
      "constant": false,
      "inputs": [
        {
          "name": "_amount",
          "type": "uint256"
        },
        {
          "name": "_roll",
          "type": "string"
        },
        {
          "name": "_course",
          "type": "string"
        },
        {
          "name": "_review",
          "type": "string"
        },
        {
          "name": "_rating",
          "type": "uint256"
        }
      ],
      "name": "propose",
      "outputs": [],
      "payable": false,
      "stateMutability": "nonpayable",
      "type": "function"
    },
    {
      "constant": false,
      "inputs": [
        {
          "name": "_listingHash",
          "type": "bytes32"
        },
        {
          "name": "_amount",
          "type": "uint256"
        }
      ],
      "name": "challenge",
      "outputs": [
        {
          "name": "challengeId",
          "type": "uint256"
        }
      ],
      "payable": false,
      "stateMutability": "nonpayable",
      "type": "function"
    },
    {
      "constant": false,
      "inputs": [
        {
          "name": "_listingHash",
          "type": "bytes32"
        },
        {
          "name": "_amount",
          "type": "uint256"
        },
        {
          "name": "_choice",
          "type": "bool"
        }
      ],
      "name": "vote",
      "outputs": [],
      "payable": false,
      "stateMutability": "nonpayable",
      "type": "function"
    },
    {
      "constant": true,
      "inputs": [
        {
          "name": "_listingHash",
          "type": "bytes32"
        }
      ],
      "name": "canBeWhitelisted",
      "outputs": [
        {
          "name": "",
          "type": "bool"
        }
      ],
      "payable": false,
      "stateMutability": "view",
      "type": "function"
    },
    {
      "constant": false,
      "inputs": [
        {
          "name": "_listingHash",
          "type": "bytes32"
        }
      ],
      "name": "updateStatus",
      "outputs": [],
      "payable": false,
      "stateMutability": "nonpayable",
      "type": "function"
    },
    {
      "constant": false,
      "inputs": [
        {
          "name": "challengeId",
          "type": "uint256"
        }
      ],
      "name": "claimRewards",
      "outputs": [],
      "payable": false,
      "stateMutability": "nonpayable",
      "type": "function"
    }
  ],
  "bytecode": "0x60806040523480156200001157600080fd5b5060405162004d8238038062004d8283398101806040526200003791908101906200032f565b600073ffffffffffffffffffffffffffffffffffffffff168273ffffffffffffffffffffffffffffffffffffffff161415620000aa576040517f08c379a0000000000000000000000000000000000000000000000000000000008152600401620000a1906200041f565b60405180910390fd5b81600760006101000a81548173ffffffffffffffffffffffffffffffffffffffff021916908373ffffffffffffffffffffffffffffffffffffffff16021790555082600890805190602001906200010392919062000169565b50806000815181106200011257fe5b6020026020010151600981905550806001815181106200012e57fe5b6020026020010151600a81905550806002815181106200014a57fe5b6020026020010151600b819055506000600c819055505050506200057e565b828054600181600116156101000203166002900490600052602060002090601f016020900481019282601f10620001ac57805160ff1916838001178555620001dd565b82800160010185558215620001dd579182015b82811115620001dc578251825591602001919060010190620001bf565b5b509050620001ec9190620001f0565b5090565b6200021591905b8082111562000211576000816000905550600101620001f7565b5090565b90565b60008151905062000229816200054a565b92915050565b600082601f8301126200024157600080fd5b81516200025862000252826200046f565b62000441565b915081818352602084019350602081019050838560208402820111156200027e57600080fd5b60005b83811015620002b2578162000297888262000318565b84526020840193506020830192505060018101905062000281565b5050505092915050565b600082601f830112620002ce57600080fd5b8151620002e5620002df8262000498565b62000441565b915080825260208301602083018583830111156200030257600080fd5b6200030f83828462000514565b50505092915050565b600081519050620003298162000564565b92915050565b6000806000606084860312156200034557600080fd5b600084015167ffffffffffffffff8111156200036057600080fd5b6200036e86828701620002bc565b9350506020620003818682870162000218565b925050604084015167ffffffffffffffff8111156200039f57600080fd5b620003ad868287016200022f565b9150509250925092565b6000620003c6602683620004c5565b91507f546f6b656e20616464726573732073686f756c64206e6f74206265203020616460008301527f64726573732e00000000000000000000000000000000000000000000000000006020830152604082019050919050565b600060208201905081810360008301526200043a81620003b7565b9050919050565b6000604051905081810181811067ffffffffffffffff821117156200046557600080fd5b8060405250919050565b600067ffffffffffffffff8211156200048757600080fd5b602082029050602081019050919050565b600067ffffffffffffffff821115620004b057600080fd5b601f19601f8301169050602081019050919050565b600082825260208201905092915050565b6000620004e382620004ea565b9050919050565b600073ffffffffffffffffffffffffffffffffffffffff82169050919050565b6000819050919050565b60005b838110156200053457808201518184015260208101905062000517565b8381111562000544576000848401525b50505050565b6200055581620004d6565b81146200056157600080fd5b50565b6200056f816200050a565b81146200057b57600080fd5b50565b6147f4806200058e6000396000f3fe608060405234801561001057600080fd5b50600436106101375760003560e01c80638a59eb56116100b8578063d7ab802d1161007c578063d7ab802d14610356578063e2083c1814610386578063e59fde15146103b6578063e6415222146103e6578063fbbf93a014610416578063fc0c546a1461043857610137565b80638a59eb56146102ae5780638cf8151f146102ca57806397508f36146102fa578063a63dd19814610318578063ae73ccec1461033657610137565b806341b3d185116100ff57806341b3d185146101f2578063533e6d8814610210578063691a38ab1461022c5780637b3565611461025c5780637f0733601461029057610137565b806301a5e3fe1461013c57806306fdde031461016c5780630962ef791461018a5780632c729fd1146101a65780632ef116ff146101c2575b600080fd5b610156600480360361015191908101906136d2565b610456565b60405161016391906141c6565b60405180910390f35b610174610483565b6040516101819190614271565b60405180910390f35b6101a4600480360361019f91908101906137c7565b610521565b005b6101c060048036036101bb9190810190613737565b610878565b005b6101dc60048036036101d79190810190613786565b610bf0565b6040516101e991906144ed565b60405180910390f35b6101fa610c1b565b60405161020791906144ed565b60405180910390f35b61022a600480360361022591908101906137f0565b610c21565b005b610246600480360361024191908101906136d2565b6111c9565b60405161025391906141c6565b60405180910390f35b610276600480360361027191908101906136d2565b611278565b6040516102879594939291906141e1565b60405180910390f35b6102986115ce565b6040516102a591906144ed565b60405180910390f35b6102c860048036036102c391908101906136d2565b6115d4565b005b6102e460048036036102df91908101906136d2565b611623565b6040516102f191906141c6565b60405180910390f35b610302611645565b60405161030f91906144ed565b60405180910390f35b61032061164b565b60405161032d91906144ed565b60405180910390f35b61033e611651565b60405161034d9392919061417a565b60405180910390f35b610370600480360361036b91908101906137c7565b611a8c565b60405161037d9190614271565b60405180910390f35b6103a0600480360361039b91908101906136fb565b611b45565b6040516103ad91906144ed565b60405180910390f35b6103d060048036036103cb91908101906137c7565b611f92565b6040516103dd9190614271565b60405180910390f35b61040060048036036103fb91908101906137c7565b61204b565b60405161040d919061423b565b60405180910390f35b61041e61206c565b60405161042f959493929190614293565b60405180910390f35b610440612152565b60405161044d9190614256565b60405180910390f35b60006003600083815260200190815260200160002060010160009054906101000a900460ff169050919050565b60088054600181600116156101000203166002900480601f0160208091040260200160405190810160405280929190818152602001828054600181600116156101000203166002900480156105195780601f106104ee57610100808354040283529160200191610519565b820191906000526020600020905b8154815290600101906020018083116104fc57829003601f168201915b505050505081565b6001151560008083815260200190815260200160002060000160149054906101000a900460ff1615151461058a576040517f08c379a00000000000000000000000000000000000000000000000000000000081526004016105819061446d565b60405180910390fd5b600060066000838152602001908152602001600020905060008160040160003373ffffffffffffffffffffffffffffffffffffffff1673ffffffffffffffffffffffffffffffffffffffff1681526020019081526020016000209050600015158160020160009054906101000a900460ff1615151461063e576040517f08c379a00000000000000000000000000000000000000000000000000000000081526004016106359061430d565b60405180910390fd5b8160030160009054906101000a900460ff16801561066a57508060000160009054906101000a900460ff165b8061069f57508160030160009054906101000a900460ff1615801561069e57508060000160009054906101000a900460ff16155b5b156108565760006106f9600080868152602001908152602001600020600301546106eb84600101546000808981526020019081526020016000206002015461217890919063ffffffff16565b6121b290919063ffffffff16565b905060006107148284600101546121d890919063ffffffff16565b9050600760009054906101000a900473ffffffffffffffffffffffffffffffffffffffff1673ffffffffffffffffffffffffffffffffffffffff1663a9059cbb33836040518363ffffffff1660e01b8152600401610773929190614128565b602060405180830381600087803b15801561078d57600080fd5b505af11580156107a1573d6000803e3d6000fd5b505050506040513d601f19601f820116820180604052506107c591908101906136a9565b610804576040517f08c379a00000000000000000000000000000000000000000000000000000000081526004016107fb9061438d565b60405180910390fd5b3373ffffffffffffffffffffffffffffffffffffffff16857f6f4c982acc31b0af2cf1dc1556f21c0325d893782d65e83c68a5534a33f599578360405161084b91906144ed565b60405180910390a350505b60018160020160006101000a81548160ff021916908315150217905550505050565b600060036000858152602001908152602001600020905061089884611623565b806108b157508060010160009054906101000a900460ff165b6108f0576040517f08c379a00000000000000000000000000000000000000000000000000000000081526004016108e7906143ed565b60405180910390fd5b6000816003015411801561092857506000808260030154815260200190815260200160002060000160149054906101000a900460ff16155b610967576040517f08c379a000000000000000000000000000000000000000000000000000000000815260040161095e9061434d565b60405180910390fd5b600060066000836003015481526020019081526020016000209050428160020154116109c8576040517f08c379a00000000000000000000000000000000000000000000000000000000081526004016109bf9061440d565b60405180910390fd5b600760009054906101000a900473ffffffffffffffffffffffffffffffffffffffff1673ffffffffffffffffffffffffffffffffffffffff166323b872dd3330876040518463ffffffff1660e01b8152600401610a27939291906140f1565b602060405180830381600087803b158015610a4157600080fd5b505af1158015610a55573d6000803e3d6000fd5b505050506040513d601f19601f82011682018060405250610a7991908101906136a9565b610ab8576040517f08c379a0000000000000000000000000000000000000000000000000000000008152600401610aaf906144ad565b60405180910390fd5b8215610ad557838160000160008282540192505081905550610ae8565b8381600101600082825401925050819055505b60405180606001604052808415158152602001858152602001600015158152508160040160003373ffffffffffffffffffffffffffffffffffffffff1673ffffffffffffffffffffffffffffffffffffffff16815260200190815260200160002060008201518160000160006101000a81548160ff0219169083151502179055506020820151816001015560408201518160020160006101000a81548160ff0219169083151502179055509050503373ffffffffffffffffffffffffffffffffffffffff16857f7a1c5ce18abad3692f6bdf85262d38c3ad4ee5cabf88020e5a0e4d6b841d83768460030154604051610be191906144ed565b60405180910390a35050505050565b6000600182604051610c029190614075565b9081526020016040518091039020600201549050919050565b60095481565b606087878787604051602001610c3a949392919061404d565b604051602081830303815290604052905060008082511415610c5d576000801b90505b60208201519050610c6d81610456565b15610cad576040517f08c379a0000000000000000000000000000000000000000000000000000000008152600401610ca4906144cd565b60405180910390fd5b610cb681611623565b15610cf6576040517f08c379a0000000000000000000000000000000000000000000000000000000008152600401610ced906142ed565b60405180910390fd5b6009548a1015610d3b576040517f08c379a0000000000000000000000000000000000000000000000000000000008152600401610d32906143cd565b60405180910390fd5b610e1681338c8c8c8080601f016020809104026020016040519081016040528093929190818152602001838380828437600081840152601f19601f820116905080830192505050505050508b8b8080601f016020809104026020016040519081016040528093929190818152602001838380828437600081840152601f19601f820116905080830192505050505050508a8a8080601f016020809104026020016040519081016040528093929190818152602001838380828437600081840152601f19601f82011690508083019250505050505050896121f7565b610e6487878080601f016020809104026020016040519081016040528093929190818152602001838380828437600081840152601f19601f820116905080830192505050505050508461258c565b600760009054906101000a900473ffffffffffffffffffffffffffffffffffffffff1673ffffffffffffffffffffffffffffffffffffffff166323b872dd33308d6040518463ffffffff1660e01b8152600401610ec3939291906140f1565b602060405180830381600087803b158015610edd57600080fd5b505af1158015610ef1573d6000803e3d6000fd5b505050506040513d601f19601f82011682018060405250610f1591908101906136a9565b610f54576040517f08c379a0000000000000000000000000000000000000000000000000000000008152600401610f4b906144ad565b60405180910390fd5b3373ffffffffffffffffffffffffffffffffffffffff16817fe1cdd401be51ef2c8159945a96274b69ba482f2a5e2131700beeda434fd6d58f8c6111a760036000878152602001908152602001600020600401604051806080016040529081600082018054600181600116156101000203166002900480601f01602080910402602001604051908101604052809291908181526020018280546001816001161561010002031660029004801561104b5780601f106110205761010080835404028352916020019161104b565b820191906000526020600020905b81548152906001019060200180831161102e57829003601f168201915b50505050508152602001600182018054600181600116156101000203166002900480601f0160208091040260200160405190810160405280929190818152602001828054600181600116156101000203166002900480156110ed5780601f106110c2576101008083540402835291602001916110ed565b820191906000526020600020905b8154815290600101906020018083116110d057829003601f168201915b50505050508152602001600282018054600181600116156101000203166002900480601f01602080910402602001604051908101604052809291908181526020018280546001816001161561010002031660029004801561118f5780601f106111645761010080835404028352916020019161118f565b820191906000526020600020905b81548152906001019060200180831161117257829003601f168201915b505050505081526020016003820154815250506126ab565b6040516111b5929190614508565b60405180910390a350505050505050505050565b600080600360008481526020019081526020016000206003015490506111ee83611623565b801561120f5750426003600085815260200190815260200160002060000154105b8015611221575061121f83610456565b155b801561125e5750600081148061125d57506001151560008083815260200190815260200160002060000160149054906101000a900460ff161515145b5b1561126d576001915050611273565b60009150505b919050565b600080600080606061128861339e565b600360008881526020019081526020016000206040518060e0016040529081600082015481526020016001820160009054906101000a900460ff161515151581526020016001820160019054906101000a900473ffffffffffffffffffffffffffffffffffffffff1673ffffffffffffffffffffffffffffffffffffffff1673ffffffffffffffffffffffffffffffffffffffff168152602001600282015481526020016003820154815260200160048201604051806080016040529081600082018054600181600116156101000203166002900480601f0160208091040260200160405190810160405280929190818152602001828054600181600116156101000203166002900480156113de5780601f106113b3576101008083540402835291602001916113de565b820191906000526020600020905b8154815290600101906020018083116113c157829003601f168201915b50505050508152602001600182018054600181600116156101000203166002900480601f0160208091040260200160405190810160405280929190818152602001828054600181600116156101000203166002900480156114805780601f1061145557610100808354040283529160200191611480565b820191906000526020600020905b81548152906001019060200180831161146357829003601f168201915b50505050508152602001600282018054600181600116156101000203166002900480601f0160208091040260200160405190810160405280929190818152602001828054600181600116156101000203166002900480156115225780601f106114f757610100808354040283529160200191611522565b820191906000526020600020905b81548152906001019060200180831161150557829003601f168201915b505050505081526020016003820154815250508152602001600882015481525050905061154e87611623565b8061155a575080602001515b611599576040517f08c379a0000000000000000000000000000000000000000000000000000000008152600401611590906143ed565b60405180910390fd5b80602001518160400151826060015183608001516115ba8560a001516126ab565b955095509550955095505091939590929450565b600a5481565b6115dd816111c9565b156116165760016003600083815260200190815260200160002060010160006101000a81548160ff021916908315150217905550611620565b61161f81612732565b5b50565b6000806003600084815260200190815260200160002060000154119050919050565b600c5481565b600b5481565b606080606061165e61339e565b606060048054905060405190808252806020026020018201604052801561169957816020015b60608152602001906001900390816116845790505b50905060606004805490506040519080825280602002602001820160405280156116d25781602001602082028038833980820191505090505b509050606060048054905060405190808252806020026020018201604052801561170b5781602001602082028038833980820191505090505b50905060008090505b600480549050811015611a7957600360006005838154811061173257fe5b906000526020600020015481526020019081526020016000206040518060e0016040529081600082015481526020016001820160009054906101000a900460ff161515151581526020016001820160019054906101000a900473ffffffffffffffffffffffffffffffffffffffff1673ffffffffffffffffffffffffffffffffffffffff1673ffffffffffffffffffffffffffffffffffffffff168152602001600282015481526020016003820154815260200160048201604051806080016040529081600082018054600181600116156101000203166002900480601f01602080910402602001604051908101604052809291908181526020018280546001816001161561010002031660029004801561188e5780601f106118635761010080835404028352916020019161188e565b820191906000526020600020905b81548152906001019060200180831161187157829003601f168201915b50505050508152602001600182018054600181600116156101000203166002900480601f0160208091040260200160405190810160405280929190818152602001828054600181600116156101000203166002900480156119305780601f1061190557610100808354040283529160200191611930565b820191906000526020600020905b81548152906001019060200180831161191357829003601f168201915b50505050508152602001600282018054600181600116156101000203166002900480601f0160208091040260200160405190810160405280929190818152602001828054600181600116156101000203166002900480156119d25780601f106119a7576101008083540402835291602001916119d2565b820191906000526020600020905b8154815290600101906020018083116119b557829003601f168201915b5050505050815260200160038201548152505081526020016008820154815250509450611a028560a001516126ab565b848281518110611a0e57fe5b602002602001018190525060058181548110611a2657fe5b9060005260206000200154838281518110611a3d57fe5b6020026020010181815250508460200151828281518110611a5a57fe5b6020026020010190151590811515815250508080600101915050611714565b5082828296509650965050505050909192565b60048181548110611a9957fe5b906000526020600020016000915090508054600181600116156101000203166002900480601f016020809104026020016040519081016040528092919081815260200182805460018160011615610100020316600290048015611b3d5780601f10611b1257610100808354040283529160200191611b3d565b820191906000526020600020905b815481529060010190602001808311611b2057829003601f168201915b505050505081565b600080600360008581526020019081526020016000209050611b6684611623565b80611b7f57508060010160009054906101000a900460ff165b611bbe576040517f08c379a0000000000000000000000000000000000000000000000000000000008152600401611bb5906143ed565b60405180910390fd5b600081600301541480611bf457506000808260030154815260200190815260200160002060000160149054906101000a900460ff165b611c33576040517f08c379a0000000000000000000000000000000000000000000000000000000008152600401611c2a9061448d565b60405180910390fd5b42816000015411611c79576040517f08c379a0000000000000000000000000000000000000000000000000000000008152600401611c70906143ad565b60405180910390fd5b8060020154831015611cc0576040517f08c379a0000000000000000000000000000000000000000000000000000000008152600401611cb79061444d565b60405180910390fd5b6001600c5401600c819055506040518060a001604052803373ffffffffffffffffffffffffffffffffffffffff168152602001600015158152602001848152602001600081526020016000815250600080600c54815260200190815260200160002060008201518160000160006101000a81548173ffffffffffffffffffffffffffffffffffffffff021916908373ffffffffffffffffffffffffffffffffffffffff16021790555060208201518160000160146101000a81548160ff02191690831515021790555060408201518160010155606082015181600201556080820151816003015590505060405180608001604052806000815260200160008152602001611dd8600b54426121d890919063ffffffff16565b81526020016000151581525060066000600c54815260200190815260200160002060008201518160000155602082015181600101556040820151816002015560608201518160030160006101000a81548160ff021916908315150217905550905050600c548160030181905550600760009054906101000a900473ffffffffffffffffffffffffffffffffffffffff1673ffffffffffffffffffffffffffffffffffffffff166323b872dd3330866040518463ffffffff1660e01b8152600401611ea4939291906140f1565b602060405180830381600087803b158015611ebe57600080fd5b505af1158015611ed2573d6000803e3d6000fd5b505050506040513d601f19601f82011682018060405250611ef691908101906136a9565b611f35576040517f08c379a0000000000000000000000000000000000000000000000000000000008152600401611f2c906144ad565b60405180910390fd5b3373ffffffffffffffffffffffffffffffffffffffff16847fc911f55bb4170a166467bde15c8799c1d2bb96a79f6bd9bc5cd3a4f05f768f6f600c54604051611f7e91906144ed565b60405180910390a3600c5491505092915050565b60028181548110611f9f57fe5b906000526020600020016000915090508054600181600116156101000203166002900480601f0160208091040260200160405190810160405280929190818152602001828054600181600116156101000203166002900480156120435780601f1061201857610100808354040283529160200191612043565b820191906000526020600020905b81548152906001019060200180831161202657829003601f168201915b505050505081565b6005818154811061205857fe5b906000526020600020016000915090505481565b6060600080600080606060088054600181600116156101000203166002900480601f01602080910402602001604051908101604052809291908181526020018280546001816001161561010002031660029004801561210c5780601f106120e15761010080835404028352916020019161210c565b820191906000526020600020905b8154815290600101906020018083116120ef57829003601f168201915b5050505050905080600760009054906101000a900473ffffffffffffffffffffffffffffffffffffffff16600954600a54600b5495509550955095509550509091929394565b600760009054906101000a900473ffffffffffffffffffffffffffffffffffffffff1681565b60008083141561218b57600090506121ac565b600082840290508284828161219c57fe5b04146121a757600080fd5b809150505b92915050565b60008082116121c057600080fd5b60008284816121cb57fe5b0490508091505092915050565b6000808284019050838110156121ed57600080fd5b8091505092915050565b6000600360008981526020019081526020016000209050868160010160016101000a81548173ffffffffffffffffffffffffffffffffffffffff021916908373ffffffffffffffffffffffffffffffffffffffff1602179055506040518060800160405280868152602001858152602001848152602001838152508160040160008201518160000190805190602001906122929291906133fa565b5060208201518160010190805190602001906122af9291906133fa565b5060408201518160020190805190602001906122cc9291906133fa565b50606082015181600301559050506005889080600181540180825580915050906001820390600052602060002001600090919290919091505550600461250f82600401604051806080016040529081600082018054600181600116156101000203166002900480601f0160208091040260200160405190810160405280929190818152602001828054600181600116156101000203166002900480156123b35780601f10612388576101008083540402835291602001916123b3565b820191906000526020600020905b81548152906001019060200180831161239657829003601f168201915b50505050508152602001600182018054600181600116156101000203166002900480601f0160208091040260200160405190810160405280929190818152602001828054600181600116156101000203166002900480156124555780601f1061242a57610100808354040283529160200191612455565b820191906000526020600020905b81548152906001019060200180831161243857829003601f168201915b50505050508152602001600282018054600181600116156101000203166002900480601f0160208091040260200160405190810160405280929190818152602001828054600181600116156101000203166002900480156124f75780601f106124cc576101008083540402835291602001916124f7565b820191906000526020600020905b8154815290600101906020018083116124da57829003601f168201915b505050505081526020016003820154815250506126ab565b908060018154018082558091505090600182039060005260206000200160009091929091909150908051906020019061254992919061347a565b50506001600480549050038160080181905550612571600a54426121d890919063ffffffff16565b81600001819055508581600201819055505050505050505050565b600061259783610bf0565b11156125e45760006001836040516125af9190614075565b9081526020016040518091039020905060018160020154018160020181905550818160010154018160010181905550506126a7565b60405180608001604052808381526020018281526020016001815260200160028054905081525060018360405161261b9190614075565b908152602001604051809103902060008201518160000190805190602001906126459291906133fa565b5060208201518160010155604082015181600201556060820151816003015590505060028290806001815401808255809150509060018203906000526020600020016000909192909190915090805190602001906126a492919061347a565b50505b5050565b6060806040518060400160405280600181526020017f7c000000000000000000000000000000000000000000000000000000000000008152509050826000015181846020015183866040015185612705896060015161314e565b60405160200161271b979695949392919061408c565b604051602081830303815290604052915050919050565b61273a61339e565b600360008381526020019081526020016000206040518060e0016040529081600082015481526020016001820160009054906101000a900460ff161515151581526020016001820160019054906101000a900473ffffffffffffffffffffffffffffffffffffffff1673ffffffffffffffffffffffffffffffffffffffff1673ffffffffffffffffffffffffffffffffffffffff168152602001600282015481526020016003820154815260200160048201604051806080016040529081600082018054600181600116156101000203166002900480601f0160208091040260200160405190810160405280929190818152602001828054600181600116156101000203166002900480156128905780601f1061286557610100808354040283529160200191612890565b820191906000526020600020905b81548152906001019060200180831161287357829003601f168201915b50505050508152602001600182018054600181600116156101000203166002900480601f0160208091040260200160405190810160405280929190818152602001828054600181600116156101000203166002900480156129325780601f1061290757610100808354040283529160200191612932565b820191906000526020600020905b81548152906001019060200180831161291557829003601f168201915b50505050508152602001600282018054600181600116156101000203166002900480601f0160208091040260200160405190810160405280929190818152602001828054600181600116156101000203166002900480156129d45780601f106129a9576101008083540402835291602001916129d4565b820191906000526020600020905b8154815290600101906020018083116129b757829003601f168201915b505050505081526020016003820154815250508152602001600882015481525050905060008160800151118015612a2f57506000808260800151815260200190815260200160002060000160149054906101000a900460ff16155b612a6e576040517f08c379a0000000000000000000000000000000000000000000000000000000008152600401612a659061434d565b60405180910390fd5b6000816080015190506000612a828261327e565b9050600160008084815260200190815260200160002060000160146101000a81548160ff021916908315150217905550600080600084815260200190815260200160002060000160009054906101000a900473ffffffffffffffffffffffffffffffffffffffff1690508115612b9d57600660008481526020019081526020016000206000015460008085815260200190815260200160002060030181905550600660008481526020019081526020016000206001015460008085815260200190815260200160002060010154016000808581526020019081526020016000206002018190555060016003600087815260200190815260200160002060010160006101000a81548160ff0219169083151502179055506130f8565b600760009054906101000a900473ffffffffffffffffffffffffffffffffffffffff1673ffffffffffffffffffffffffffffffffffffffff1663a9059cbb82600080878152602001908152602001600020600101546040518363ffffffff1660e01b8152600401612c0f929190614151565b602060405180830381600087803b158015612c2957600080fd5b505af1158015612c3d573d6000803e3d6000fd5b505050506040513d601f19601f82011682018060405250612c6191908101906136a9565b612ca0576040517f08c379a0000000000000000000000000000000000000000000000000000000008152600401612c979061442d565b60405180910390fd5b6006600084815260200190815260200160002060010154600080858152602001908152602001600020600301819055506006600084815260200190815260200160002060000154846060015101600080858152602001908152602001600020600201819055506060600360008781526020019081526020016000206004016001018054600181600116156101000203166002900480601f016020809104026020016040519081016040528092919081815260200182805460018160011615610100020316600290048015612db55780601f10612d8a57610100808354040283529160200191612db5565b820191906000526020600020905b815481529060010190602001808311612d9857829003601f168201915b50505050509050600060036000888152602001908152602001600020600401600301549050612de26134fa565b600183604051612df29190614075565b9081526020016040518091039020604051806080016040529081600082018054600181600116156101000203166002900480601f016020809104026020016040519081016040528092919081815260200182805460018160011615610100020316600290048015612ea45780601f10612e7957610100808354040283529160200191612ea4565b820191906000526020600020905b815481529060010190602001808311612e8757829003601f168201915b505050505081526020016001820154815260200160028201548152602001600382015481525050905060018084604051612ede9190614075565b9081526020016040518091039020600201541415612f6b57600183604051612f069190614075565b908152602001604051809103902060008082016000612f259190613522565b60018201600090556002820160009055600382016000905550506002816060015181548110612f5057fe5b906000526020600020016000612f669190613522565b612ffe565b81600184604051612f7c9190614075565b90815260200160405180910390206001015403600184604051612f9f9190614075565b90815260200160405180910390206001018190555060018084604051612fc59190614075565b90815260200160405180910390206002015403600184604051612fe89190614075565b9081526020016040518091039020600201819055505b600360008981526020019081526020016000206000808201600090556001820160006101000a81549060ff02191690556001820160016101000a81549073ffffffffffffffffffffffffffffffffffffffff021916905560028201600090556003820160009055600482016000808201600061307a9190613522565b60018201600061308a9190613522565b60028201600061309a9190613522565b600382016000905550506008820160009055505060048760c00151815481106130bf57fe5b9060005260206000200160006130d59190613522565b60058760c00151815481106130e657fe5b90600052602060002001600090555050505b3373ffffffffffffffffffffffffffffffffffffffff16857f779e2848f275ef7b62be066e59dc34b2b8d79758079849859de844a3d9b9fb0d8560405161313f91906144ed565b60405180910390a35050505050565b60606000821415613196576040518060400160405280600181526020017f30000000000000000000000000000000000000000000000000000000000000008152509050613279565b600082905060005b600082146131c0578080600101915050600a82816131b857fe5b04915061319e565b6060816040519080825280601f01601f1916602001820160405280156131f55781602001600182028038833980820191505090505b50905060006001830390508593505b6000841461327157600a848161321657fe5b0660300160f81b8282806001900393508151811061323057fe5b60200101907effffffffffffffffffffffffffffffffffffffffffffffffffffffffffffff1916908160001a905350600a848161326957fe5b049350613204565b819450505050505b919050565b6000806006600084815260200190815260200160002060020154116132d8576040517f08c379a00000000000000000000000000000000000000000000000000000000081526004016132cf9061432d565b60405180910390fd5b600060066000848152602001908152602001600020905042816002015410613335576040517f08c379a000000000000000000000000000000000000000000000000000000000815260040161332c9061436d565b60405180910390fd5b80600101548160000154106133665760018160030160006101000a81548160ff021916908315150217905550613384565b60008160030160006101000a81548160ff0219169083151502179055505b8060030160009054906101000a900460ff16915050919050565b60405180610140016040528060008152602001600015158152602001600073ffffffffffffffffffffffffffffffffffffffff16815260200160008152602001600081526020016133ed61356a565b8152602001600081525090565b828054600181600116156101000203166002900490600052602060002090601f016020900481019282601f1061343b57805160ff1916838001178555613469565b82800160010185558215613469579182015b8281111561346857825182559160200191906001019061344d565b5b5090506134769190613592565b5090565b828054600181600116156101000203166002900490600052602060002090601f016020900481019282601f106134bb57805160ff19168380011785556134e9565b828001600101855582156134e9579182015b828111156134e85782518255916020019190600101906134cd565b5b5090506134f69190613592565b5090565b6040518060800160405280606081526020016000815260200160008152602001600081525090565b50805460018160011615610100020316600290046000825580601f106135485750613567565b601f0160209004906000526020600020908101906135669190613592565b5b50565b6040518060800160405280606081526020016060815260200160608152602001600081525090565b6135b491905b808211156135b0576000816000905550600101613598565b5090565b90565b6000813590506135c681614775565b92915050565b6000815190506135db81614775565b92915050565b6000813590506135f08161478c565b92915050565b60008083601f84011261360857600080fd5b8235905067ffffffffffffffff81111561362157600080fd5b60208301915083600182028301111561363957600080fd5b9250929050565b600082601f83011261365157600080fd5b813561366461365f82614565565b614538565b9150808252602083016020830185838301111561368057600080fd5b61368b838284614722565b50505092915050565b6000813590506136a3816147a3565b92915050565b6000602082840312156136bb57600080fd5b60006136c9848285016135cc565b91505092915050565b6000602082840312156136e457600080fd5b60006136f2848285016135e1565b91505092915050565b6000806040838503121561370e57600080fd5b600061371c858286016135e1565b925050602061372d85828601613694565b9150509250929050565b60008060006060848603121561374c57600080fd5b600061375a868287016135e1565b935050602061376b86828701613694565b925050604061377c868287016135b7565b9150509250925092565b60006020828403121561379857600080fd5b600082013567ffffffffffffffff8111156137b257600080fd5b6137be84828501613640565b91505092915050565b6000602082840312156137d957600080fd5b60006137e784828501613694565b91505092915050565b60008060008060008060008060a0898b03121561380c57600080fd5b600061381a8b828c01613694565b985050602089013567ffffffffffffffff81111561383757600080fd5b6138438b828c016135f6565b9750975050604089013567ffffffffffffffff81111561386257600080fd5b61386e8b828c016135f6565b9550955050606089013567ffffffffffffffff81111561388d57600080fd5b6138998b828c016135f6565b935093505060806138ac8b828c01613694565b9150509295985092959890939650565b60006138c88383613a4f565b60208301905092915050565b60006138e08383613a6d565b60208301905092915050565b60006138f88383613b29565b905092915050565b613909816146c8565b82525050565b61391881614676565b82525050565b6000613929826145b8565b6139338185614616565b935061393e83614591565b8060005b8381101561396f57815161395688826138bc565b9750613961836145ef565b925050600181019050613942565b5085935050505092915050565b6000613987826145c3565b6139918185614627565b935061399c8361459e565b8060005b838110156139cd5781516139b488826138d4565b97506139bf836145fc565b9250506001810190506139a0565b5085935050505092915050565b60006139e5826145ce565b6139ef8185614638565b935083602082028501613a01856145ab565b8060005b85811015613a3d5784840389528151613a1e85826138ec565b9450613a2983614609565b925060208a01995050600181019050613a05565b50829750879550505050505092915050565b613a5881614688565b82525050565b613a6781614688565b82525050565b613a7681614694565b82525050565b613a8581614694565b82525050565b613a94816146da565b82525050565b6000613aa6838561466b565b9350613ab3838584614722565b82840190509392505050565b6000613aca826145e4565b613ad4818561465a565b9350613ae4818560208601614731565b613aed81614764565b840191505092915050565b6000613b03826145e4565b613b0d818561466b565b9350613b1d818560208601614731565b80840191505092915050565b6000613b34826145d9565b613b3e8185614649565b9350613b4e818560208601614731565b613b5781614764565b840191505092915050565b6000613b6d826145d9565b613b77818561465a565b9350613b87818560208601614731565b613b9081614764565b840191505092915050565b6000613ba6826145d9565b613bb0818561466b565b9350613bc0818560208601614731565b80840191505092915050565b6000613bd960228361465a565b91507f4c697374696e6720697320616c726561647920696e206170706c79207374616760008301527f652e0000000000000000000000000000000000000000000000000000000000006020830152604082019050919050565b6000613c3f601f8361465a565b91507f566f74652072657761726420697320616c726561647920636c61696d65642e006000830152602082019050919050565b6000613c7f60148361465a565b91507f506f6c6c20646f6573206e6f742065786973742e0000000000000000000000006000830152602082019050919050565b6000613cbf601a8361465a565b91507f4c697374696e67206973206e6f74206368616c6c656e6765642e0000000000006000830152602082019050919050565b6000613cff60188361465a565b91507f436f6d6d697420706572696f64206973206163746976652e00000000000000006000830152602082019050919050565b6000613d3f601e8361465a565b91507f566f74696e6720726577617264207472616e73666572206661696c65642e00006000830152602082019050919050565b6000613d7f60178361465a565b91507f4170706c7920737461676520686173207061737365642e0000000000000000006000830152602082019050919050565b6000613dbf60218361465a565b91507f4e6f7420656e6f756768207374616b6520666f72206170706c69636174696f6e60008301527f2e000000000000000000000000000000000000000000000000000000000000006020830152604082019050919050565b6000613e2560178361465a565b91507f4c697374696e6720646f6573206e6f742065786973742e0000000000000000006000830152602082019050919050565b6000613e6560198361465a565b91507f436f6d6d697420706572696f6420686173207061737365642e000000000000006000830152602082019050919050565b6000613ea5601e8361465a565b91507f4368616c6c656e6765207374616b652072657475726e206661696c65642e00006000830152602082019050919050565b6000613ee560268361465a565b91507f4e6f7420656e6f756768207374616b652070617373656420666f72206368616c60008301527f6c656e67652e00000000000000000000000000000000000000000000000000006020830152604082019050919050565b6000613f4b601a8361465a565b91507f4368616c6c656e6765206973206e6f74207265736f6c7665642e0000000000006000830152602082019050919050565b6000613f8b601e8361465a565b91507f4c697374696e6720697320616c7265616479206368616c6c656e6765642e00006000830152602082019050919050565b6000613fcb60168361465a565b91507f546f6b656e207472616e73666572206661696c65642e000000000000000000006000830152602082019050919050565b600061400b601f8361465a565b91507f4c697374696e6720697320616c72656164792077686974656c69737465642e006000830152602082019050919050565b614047816146be565b82525050565b600061405a828688613a9a565b9150614067828486613a9a565b915081905095945050505050565b60006140818284613af8565b915081905092915050565b6000614098828a613b9b565b91506140a48289613af8565b91506140b08288613b9b565b91506140bc8287613af8565b91506140c88286613b9b565b91506140d48285613af8565b91506140e08284613af8565b915081905098975050505050505050565b60006060820190506141066000830186613900565b614113602083018561390f565b614120604083018461403e565b949350505050565b600060408201905061413d6000830185613900565b61414a602083018461403e565b9392505050565b6000604082019050614166600083018561390f565b614173602083018461403e565b9392505050565b6000606082019050818103600083015261419481866139da565b905081810360208301526141a8818561397c565b905081810360408301526141bc818461391e565b9050949350505050565b60006020820190506141db6000830184613a5e565b92915050565b600060a0820190506141f66000830188613a5e565b614203602083018761390f565b614210604083018661403e565b61421d606083018561403e565b818103608083015261422f8184613abf565b90509695505050505050565b60006020820190506142506000830184613a7c565b92915050565b600060208201905061426b6000830184613a8b565b92915050565b6000602082019050818103600083015261428b8184613b62565b905092915050565b600060a08201905081810360008301526142ad8188613abf565b90506142bc602083018761390f565b6142c9604083018661403e565b6142d6606083018561403e565b6142e3608083018461403e565b9695505050505050565b6000602082019050818103600083015261430681613bcc565b9050919050565b6000602082019050818103600083015261432681613c32565b9050919050565b6000602082019050818103600083015261434681613c72565b9050919050565b6000602082019050818103600083015261436681613cb2565b9050919050565b6000602082019050818103600083015261438681613cf2565b9050919050565b600060208201905081810360008301526143a681613d32565b9050919050565b600060208201905081810360008301526143c681613d72565b9050919050565b600060208201905081810360008301526143e681613db2565b9050919050565b6000602082019050818103600083015261440681613e18565b9050919050565b6000602082019050818103600083015261442681613e58565b9050919050565b6000602082019050818103600083015261444681613e98565b9050919050565b6000602082019050818103600083015261446681613ed8565b9050919050565b6000602082019050818103600083015261448681613f3e565b9050919050565b600060208201905081810360008301526144a681613f7e565b9050919050565b600060208201905081810360008301526144c681613fbe565b9050919050565b600060208201905081810360008301526144e681613ffe565b9050919050565b6000602082019050614502600083018461403e565b92915050565b600060408201905061451d600083018561403e565b818103602083015261452f8184613abf565b90509392505050565b6000604051905081810181811067ffffffffffffffff8211171561455b57600080fd5b8060405250919050565b600067ffffffffffffffff82111561457c57600080fd5b601f19601f8301169050602081019050919050565b6000602082019050919050565b6000602082019050919050565b6000602082019050919050565b600081519050919050565b600081519050919050565b600081519050919050565b600081519050919050565b600081519050919050565b6000602082019050919050565b6000602082019050919050565b6000602082019050919050565b600082825260208201905092915050565b600082825260208201905092915050565b600082825260208201905092915050565b600082825260208201905092915050565b600082825260208201905092915050565b600081905092915050565b60006146818261469e565b9050919050565b60008115159050919050565b6000819050919050565b600073ffffffffffffffffffffffffffffffffffffffff82169050919050565b6000819050919050565b60006146d3826146fe565b9050919050565b60006146e5826146ec565b9050919050565b60006146f78261469e565b9050919050565b600061470982614710565b9050919050565b600061471b8261469e565b9050919050565b82818337600083830152505050565b60005b8381101561474f578082015181840152602081019050614734565b8381111561475e576000848401525b50505050565b6000601f19601f8301169050919050565b61477e81614688565b811461478957600080fd5b50565b61479581614694565b81146147a057600080fd5b50565b6147ac816146be565b81146147b757600080fd5b5056fea265627a7a72305820004b1813d2b8ef356f90575dfa62cef2daf6d52be49ba80499b500d43181be216c6578706572696d656e74616cf50037",
  "source": "// Most of the code in this contract is derived from the generic TCR implementation from Mike Goldin and (the adChain) team\n// This contract strips out most of the details and only keeps the basic TCR functionality (apply/propose, challenge, vote, resolve)\n// Consider this to be the \"hello world\" for TCR implementation\n// For real world usage, please refer to the generic TCR implementation\n// https://github.com/skmgoldin/tcr\n\npragma solidity ^0.5.8;\npragma experimental ABIEncoderV2;\n\nimport \"../node_modules/openzeppelin-solidity/contracts/token/ERC20/ERC20.sol\";\nimport \"../node_modules/openzeppelin-solidity/contracts/math/SafeMath.sol\";\n\ncontract Tcr {\n\n    using SafeMath for uint;\n\n    struct Data {\n        string rollNumber;\n        string course ;\n        string review;\n        uint rating;\n\t}\n\n    struct Course{\n        string courseCode;\n        uint courseTotal;\n        uint numberOfReviews;\n        uint arrIndex;\n\t}\n\n    struct Listing {\n        uint applicationExpiry; // Expiration date of apply stage\n        bool whitelisted;       // Indicates registry status\n        address owner;          // Owner of Listing\n        uint deposit;           // Number of tokens in the listing\n        uint challengeId;       // the challenge id of the current challenge\n        Data data;            // name of listing (for UI)\n        uint arrIndex;          // arrayIndex of listing in listingNames array (for deletion)\n\t\n    }\n\n    // instead of using the elegant PLCR voting, we are using just a list because this is *simple-TCR*\n    struct Vote {\n        bool value;\n        uint stake;\n        bool claimed;\n    }\n\n    struct Poll {\n        uint votesFor;\n        uint votesAgainst;\n        uint commitEndDate;\n        bool passed;\n        mapping(address => Vote) votes; // revealed by default; no partial locking\n    }\n\n    struct Challenge {\n        address challenger;     // Owner of Challenge3\n        bool resolved;          // Indication of if challenge is resolved\n        uint stake;             // Number of tokens at stake for either party during challenge\n        uint rewardPool;        // number of tokens from losing side - winning reward\n        uint totalTokens;       // number of tokens from winning side - to be returned\n    }\n\n    // Maps challengeIDs to associated challenge data\n    mapping(uint => Challenge) private challenges;\n\n    mapping(string => Course) private courses;\n    string[] public courseNames;\n\n    // Maps listingHashes to associated listingHash data\n    mapping(bytes32 => Listing) private listings;\n    string[] public listingNames;\n    bytes32[] public listingHashes;\n\n    // Maps polls to associated challenge\n    mapping(uint => Poll) private polls;\n\n    // Global Variables\n    ERC20 public token;\n    string public name;\n    uint public minDeposit;\n    uint public applyStageLen;\n    uint public commitStageLen;\n\n    uint constant private INITIAL_POLL_NONCE = 0;\n    uint public pollNonce;\n\n    // Events\n    event _Application(bytes32 indexed listingHash, uint deposit, string data, address indexed applicant);\n    event _Challenge(bytes32 indexed listingHash, uint challengeId, address indexed challenger);\n    event _Vote(bytes32 indexed listingHash, uint challengeId, address indexed voter);\n    event _ResolveChallenge(bytes32 indexed listingHash, uint challengeId, address indexed resolver);\n    event _RewardClaimed(uint indexed challengeId, uint reward, address indexed voter);\n\n    // using the constructor to initialize the TCR parameters\n    // again, to keep it simple, skipping the Parameterizer and ParameterizerFactory\n    constructor(\n        string memory _name,\n        address _token,\n        uint[] memory _parameters\n    ) public {\n        require(_token != address(0), \"Token address should not be 0 address.\");\n\n        token = ERC20(_token);\n        name = _name;\n\n        // minimum deposit for listing to be whitelisted\n        minDeposit = _parameters[0];\n\n        // period over which applicants wait to be whitelisted\n        applyStageLen = _parameters[1];\n\n        // length of commit period for voting\n        commitStageLen = _parameters[2];\n\n        // Initialize the poll nonce\n        pollNonce = INITIAL_POLL_NONCE;\n    }\n\n    function uint2str(uint _i) internal pure returns (string memory ) {\n        if (_i == 0) {\n            return \"0\";\n        }\n        uint j = _i;\n        uint len;\n        while (j != 0) {\n            len++;\n            j /= 10;\n        }\n        bytes memory bstr = new bytes(len);\n        uint k = len - 1;\n        j = _i;\n        while (j != 0) {\n            bstr[k--] = byte(uint8(48 + j % 10));\n            j /= 10;\n        }\n        return string(bstr);\n\t}\n\n    function strReview(Data memory data) private pure returns (string memory){\n\t    string memory space = \"|\";\n    \treturn string(abi.encodePacked(data.rollNumber, space, data.course, space, data.review, space, uint2str(data.rating)));\n    }\n    // returns whether a listing is already whitelisted\n    function isWhitelisted(bytes32 _listingHash) public view returns (bool whitelisted) {\n        return listings[_listingHash].whitelisted;\n    }\n\n    // returns if a listing is in apply stage\n    function appWasMade(bytes32 _listingHash) public view returns (bool exists) {\n        return listings[_listingHash].applicationExpiry > 0;\n    }\n\n    // get all listing names (for UI)\n    // not to be used in a production use case\n    function getAllListings() public view returns (string[] memory, bytes32[] memory, bool[] memory) {\n        // uint count = 0;\n        Listing memory templisting;\n        // for (uint256 i = 0; i < listingNames.length; i++) {\n            // templisting = listings[listingHashes[i]];\n            // if(bytes(templisting.data.course).length > 0)\n                // count = count + 1;\n        // }\n        // string[] memory listingArr = new string[](count);\n        // bytes32[] memory hashArr = new bytes32[](count);\n        // bool[] memory whitelistedArr = new bool[](count);\n\n        string[] memory listingArr = new string[](listingNames.length);\n        bytes32[] memory hashArr = new bytes32[](listingNames.length);\n        bool[] memory whitelistedArr = new bool[](listingNames.length);\n\n        for (uint256 i = 0; i < listingNames.length; i++) {\n            templisting = listings[listingHashes[i]];\n            // if(bytes(templisting.data.course).length > 0) {\n                listingArr[i] = strReview(templisting.data);\n                hashArr[i] = listingHashes[i];\n                whitelistedArr[i] = templisting.whitelisted;\n            // }\n        }\n        return (listingArr, hashArr, whitelistedArr);\n    }\n\n    // get details of this registry (for UI)\n    function getDetails() public view returns (string memory, address, uint, uint, uint) {\n        string memory _name = name;\n        return (_name, address(token), minDeposit, applyStageLen, commitStageLen);\n    }\n\n    // get details of a listing (for UI)\n    function getListingDetails(bytes32 _listingHash) public view returns (bool, address, uint, uint, string memory) {\n        Listing memory listingIns = listings[_listingHash];\n        // Listing must be in apply stage or already on the whitelist\n        require(appWasMade(_listingHash) || listingIns.whitelisted, \"Listing does not exist.\");\n\n        return (listingIns.whitelisted, listingIns.owner, listingIns.deposit, listingIns.challengeId,strReview(listingIns.data));\n    }\n\n    function CourseExists(string memory _courseHash) public view returns (uint) {\n        return courses[_courseHash].numberOfReviews;\n    }\n\n    function createNewCourse(string memory _courseCode, uint _course_rating) private {\n\t    if (CourseExists(_courseCode) > 0){\n            Course storage temp_course = courses[_courseCode];\n            temp_course.numberOfReviews = temp_course.numberOfReviews + 1;\n            temp_course.courseTotal = (temp_course.courseTotal + _course_rating);\n        } else {\n            courses[_courseCode] = Course({\n                courseCode: _courseCode,\n                courseTotal : _course_rating,\n                numberOfReviews : 1,\n                arrIndex : courseNames.length\n            });\n    \t    courseNames.push(_courseCode);\n\t    }\n    }\n\n    function createNewListing(bytes32 _listingHash, address sender, uint _amount,  string memory _roll, string memory _course, string memory _review, uint _rating) private  {\n    \t// Sets owner\n        Listing storage listing = listings[_listingHash];\n        listing.owner = sender;\n        listing.data = Data({\n            rollNumber: _roll,\n            course: _course,\n            review: _review,\n            rating : _rating\n        });\n\n\t    listingHashes.push(_listingHash);\n        listingNames.push(strReview(listing.data));\n        listing.arrIndex = listingNames.length - 1;\n\n        // Sets apply stage end time\n        // now or block.timestamp is safe here (can live with ~15 sec apprmberOoximation)\n        /* solium-disable-next-line security/no-block-members */\n        listing.applicationExpiry = now.add(applyStageLen);\n        listing.deposit = _amount;\n    }\n\n    // proposes a listing to be whitelisted\n    function propose(uint _amount, string calldata _roll,  string calldata _course, string calldata _review, uint _rating ) external {\n\t    //change started\n\t    string memory source = string(abi.encodePacked(_roll, _course));\n\t    bytes32 _listingHash;\n    \tif (bytes(source).length == 0) {\n            _listingHash = 0x0;\n    \t}\n    \tassembly {\n            _listingHash := mload(add(source, 32))\n    \t}\n\t    //change ended\n\t    require(!isWhitelisted(_listingHash), \"Listing is already whitelisted.\");\n        require(!appWasMade(_listingHash), \"Listing is already in apply stage.\");\n        require(_amount >= minDeposit, \"Not enough stake for application.\");\n\n\t    createNewListing(_listingHash, msg.sender, _amount,  _roll, _course, _review, _rating);\n\t    createNewCourse(_course, _rating);\n\n        // Transfer tokens from user\n        require(token.transferFrom(msg.sender, address(this), _amount), \"Token transfer failed.\");\n        emit _Application(_listingHash, _amount, strReview(listings[_listingHash].data), msg.sender);\n    }\n\n    // challenges a listing from being whitelisted\n    function challenge(bytes32 _listingHash, uint _amount)\n        external returns (uint challengeId) {\n        Listing storage listing = listings[_listingHash];\n\n        // Listing must be in apply stage or already on the whitelist\n        require(appWasMade(_listingHash) || listing.whitelisted, \"Listing does not exist.\");\n\n        // Prevent multiple challenges\n        require(listing.challengeId == 0 || challenges[listing.challengeId].resolved, \"Listing is already challenged.\");\n\n        // check if apply stage is active\n        /* solium-disable-next-line security/no-block-members */\n        require(listing.applicationExpiry > now, \"Apply stage has passed.\");\n\n        // check if enough amount is staked for challenge\n        require(_amount >= listing.deposit, \"Not enough stake passed for challenge.\");\n\n        pollNonce = pollNonce + 1;\n        challenges[pollNonce] = Challenge({\n            challenger: msg.sender,\n            stake: _amount,\n            resolved: false,\n            totalTokens: 0,\n            rewardPool: 0\n        });\n\n        // create a new poll for the challenge\n        polls[pollNonce] = Poll({\n            votesFor: 0,\n            votesAgainst: 0,\n            passed: false,\n            commitEndDate: now.add(commitStageLen) /* solium-disable-line security/no-block-members */\n        });\n\n        // Updates listingHash to store most recent challenge\n        listing.challengeId = pollNonce;\n\n        // Transfer tokens from challenger\n        require(token.transferFrom(msg.sender, address(this), _amount), \"Token transfer failed.\");\n\n        emit _Challenge(_listingHash, pollNonce, msg.sender);\n        return pollNonce;\n    }\n\n    // commits a vote for/against a listing\n    // plcr voting is not being used here\n    // to keep it simple, we just store the choice as a bool - true is for and false is against\n    function vote(bytes32 _listingHash, uint _amount, bool _choice) public {\n        Listing storage listing = listings[_listingHash];\n\n        // Listing must be in apply stage or already on the whitelist\n        require(appWasMade(_listingHash) || listing.whitelisted, \"Listing does not exist.\");\n\n        // Check if listing is challenged\n        require(listing.challengeId > 0 && !challenges[listing.challengeId].resolved, \"Listing is not challenged.\");\n\n        Poll storage poll = polls[listing.challengeId];\n\n        // check if commit stage is active\n        /* solium-disable-next-line security/no-block-members */\n        require(poll.commitEndDate > now, \"Commit period has passed.\");\n\n        // Transfer tokens from voter\n        require(token.transferFrom(msg.sender, address(this), _amount), \"Token transfer failed.\");\n\n        if(_choice) {\n            poll.votesFor += _amount;\n        } else {\n            poll.votesAgainst += _amount;\n        }\n\n        // TODO: fix vote override when same person is voting again\n        poll.votes[msg.sender] = Vote({\n            value: _choice,\n            stake: _amount,\n            claimed: false\n        });\n\n        emit _Vote(_listingHash, listing.challengeId, msg.sender);\n    }\n\n    // check if the listing can be whitelisted\n    function canBeWhitelisted(bytes32 _listingHash) public view returns (bool) {\n        uint challengeId = listings[_listingHash].challengeId;\n\n        // Ensures that the application was made,\n        // the application period has ended,\n        // the listingHash can be whitelisted,\n        // and either: the challengeId == 0, or the challenge has been resolved.\n        /* solium-disable */\n        if (appWasMade(_listingHash) && \n            listings[_listingHash].applicationExpiry < now && \n            !isWhitelisted(_listingHash) &&\n            (challengeId == 0 || challenges[challengeId].resolved == true)) {\n            return true; \n        }\n\n        return false;\n    }\n\n    // updates the status of a listing\n    function updateStatus(bytes32 _listingHash) public {\n        if (canBeWhitelisted(_listingHash)) {\n            listings[_listingHash].whitelisted = true;\n        } else {\n            resolveChallenge(_listingHash);\n        }\n    }\n\n    // ends a poll and returns if the poll passed or not\n    function endPoll(uint challengeId) private returns (bool didPass) {\n        require(polls[challengeId].commitEndDate > 0, \"Poll does not exist.\");\n        Poll storage poll = polls[challengeId];\n\n        // check if commit stage is active\n        /* solium-disable-next-line security/no-block-members */\n        require(poll.commitEndDate < now, \"Commit period is active.\");\n\n        if (poll.votesFor >= poll.votesAgainst) {\n            poll.passed = true;\n        } else {\n            poll.passed = false;\n        }\n\n        return poll.passed;\n    }\n\n    // resolves a challenge and calculates rewards\n    function resolveChallenge(bytes32 _listingHash) private {\n        // Check if listing is challenged\n        Listing memory listing = listings[_listingHash];\n        require(listing.challengeId > 0 && !challenges[listing.challengeId].resolved, \"Listing is not challenged.\");\n\n        uint challengeId = listing.challengeId;\n\n        // end the poll\n        bool pollPassed = endPoll(challengeId);\n\n        // updated challenge status\n        challenges[challengeId].resolved = true;\n\n        address challenger = challenges[challengeId].challenger;\n\n        // Case: challenge failed\n        if (pollPassed) {\n            challenges[challengeId].totalTokens = polls[challengeId].votesFor;\n            challenges[challengeId].rewardPool = challenges[challengeId].stake + polls[challengeId].votesAgainst;\n            listings[_listingHash].whitelisted = true;\n        } else { // Case: challenge succeeded\n            // give back the challenge stake to the challenger\n            require(token.transfer(challenger, challenges[challengeId].stake), \"Challenge stake return failed.\");\n            challenges[challengeId].totalTokens = polls[challengeId].votesAgainst;\n            challenges[challengeId].rewardPool = listing.deposit + polls[challengeId].votesFor;\n\n\t    //Data memory data = listings[_listingHash].Data;\n\t    string memory courseHash = listings[_listingHash].data.course;\n\t    uint rating = listings[_listingHash].data.rating;\n\t    Course memory temp_course = courses[courseHash];\t\n\t    if (courses[courseHash].numberOfReviews == 1)\n\t\t{delete courses[courseHash];\n\t\tdelete courseNames[temp_course.arrIndex];\n\t\t}\n\t    else {\n\t    courses[courseHash].courseTotal = courses[courseHash].courseTotal  - rating;\n\t    courses[courseHash].numberOfReviews = courses[courseHash].numberOfReviews - 1;\n\t\t}\n        delete listings[_listingHash];\n        delete listingNames[listing.arrIndex];\n\t    delete listingHashes[listing.arrIndex];\n        }\n\n        emit _ResolveChallenge(_listingHash, challengeId, msg.sender);\n    }\n\n    // claim rewards for a vote\n    function claimRewards(uint challengeId) public {\n        // check if challenge is resolved\n        require(challenges[challengeId].resolved == true, \"Challenge is not resolved.\");\n        \n        Poll storage poll = polls[challengeId];\n        Vote storage voteInstance = poll.votes[msg.sender];\n        \n        // check if vote reward is already claimed\n        require(voteInstance.claimed == false, \"Vote reward is already claimed.\");\n\n        // if winning party, calculate reward and transfer\n        if((poll.passed && voteInstance.value) || (!poll.passed && !voteInstance.value)) {\n            uint reward = (challenges[challengeId].rewardPool.mul(voteInstance.stake)).div(challenges[challengeId].totalTokens);\n            uint total = voteInstance.stake.add(reward);\n            require(token.transfer(msg.sender, total), \"Voting reward transfer failed.\");\n            emit _RewardClaimed(challengeId, total, msg.sender);\n        }\n\n        voteInstance.claimed = true;\n    }\n}",
  "sourcePath": "/home/jukebox/Desktop/Acads/7-Sem/EE475/project/contracts/tcr.sol",
  "compiler": {
    "name": "solc",
    "version": "0.5.8+commit.23d335f2.Emscripten.clang"
  },
  "schemaVersion": "3.0.16",
  "updatedAt": "2019-10-31T20:42:05.043Z",
  "devdoc": {
    "methods": {}
  },
  "userdoc": {
    "methods": {}
  }
}